{
  "_format": "hh-sol-artifact-1",
  "contractName": "Interaction",
  "sourceName": "contracts/Interaction.sol",
  "abi": [
    {
      "anonymous": false,
      "inputs": [
        {
          "indexed": false,
          "internalType": "address",
          "name": "patient",
          "type": "address"
        },
        {
          "indexed": false,
          "internalType": "address",
          "name": "doctor",
          "type": "address"
        }
      ],
      "name": "AccessGranted",
      "type": "event"
    },
    {
      "anonymous": false,
      "inputs": [
        {
          "indexed": false,
          "internalType": "address",
          "name": "patient",
          "type": "address"
        },
        {
          "indexed": false,
          "internalType": "address",
          "name": "doctor",
          "type": "address"
        }
      ],
      "name": "AccessRevoked",
      "type": "event"
    },
    {
      "anonymous": false,
      "inputs": [
        {
          "indexed": false,
          "internalType": "address",
          "name": "patient",
          "type": "address"
        }
      ],
      "name": "CreateEHR",
      "type": "event"
    },
    {
      "anonymous": false,
      "inputs": [
        {
          "indexed": false,
          "internalType": "address",
          "name": "patient",
          "type": "address"
        },
        {
          "indexed": false,
          "internalType": "address",
          "name": "serviceProvider",
          "type": "address"
        },
        {
          "indexed": false,
          "internalType": "bytes32",
          "name": "EHRhash",
          "type": "bytes32"
        }
      ],
      "name": "UpdatedEHR",
      "type": "event"
    },
    {
      "inputs": [
        {
          "internalType": "bytes32",
          "name": "EHRhash",
          "type": "bytes32"
        }
      ],
      "name": "createDefaultEHR",
      "outputs": [],
      "stateMutability": "nonpayable",
      "type": "function"
    },
    {
      "inputs": [],
      "name": "getAuthDoctors",
      "outputs": [
        {
          "internalType": "address[]",
          "name": "",
          "type": "address[]"
        }
      ],
      "stateMutability": "view",
      "type": "function"
    },
    {
      "inputs": [],
      "name": "getAuthPatients",
      "outputs": [
        {
          "internalType": "address[]",
          "name": "",
          "type": "address[]"
        }
      ],
      "stateMutability": "view",
      "type": "function"
    },
    {
      "inputs": [
        {
          "internalType": "address",
          "name": "_doctorAddress",
          "type": "address"
        }
      ],
      "name": "grantAccess",
      "outputs": [],
      "stateMutability": "nonpayable",
      "type": "function"
    },
    {
      "inputs": [
        {
          "internalType": "address",
          "name": "_patientAddress",
          "type": "address"
        },
        {
          "internalType": "address",
          "name": "_doctorAddress",
          "type": "address"
        }
      ],
      "name": "grantAccessDocToDoc",
      "outputs": [],
      "stateMutability": "nonpayable",
      "type": "function"
    },
    {
      "inputs": [
        {
          "internalType": "address",
          "name": "_doctorAddress",
          "type": "address"
        }
      ],
      "name": "revokeAccess",
      "outputs": [],
      "stateMutability": "nonpayable",
      "type": "function"
    },
    {
      "inputs": [
        {
          "internalType": "address",
          "name": "_address",
          "type": "address"
        }
      ],
      "name": "seePatientExists",
      "outputs": [
        {
          "internalType": "bool",
          "name": "exists",
          "type": "bool"
        }
      ],
      "stateMutability": "view",
      "type": "function"
    },
    {
      "inputs": [
        {
          "internalType": "address",
          "name": "_patientAddress",
          "type": "address"
        },
        {
          "internalType": "bytes32",
          "name": "EHRhash",
          "type": "bytes32"
        },
        {
          "internalType": "bytes32",
          "name": "Filehash",
          "type": "bytes32"
        }
      ],
      "name": "updateEHR",
      "outputs": [],
      "stateMutability": "nonpayable",
      "type": "function"
    }
  ],
  "bytecode": "0x608060405234801561001057600080fd5b50612632806100206000396000f3fe608060405234801561001057600080fd5b50600436106100885760003560e01c806347eec3071161005b57806347eec307146100fd57806368da81d31461011b57806385e685311461014b578063c068d1c51461016757610088565b806309c571b71461008d5780630ae5e739146100a9578063221e6e06146100c557806347eac067146100e1575b600080fd5b6100a760048036038101906100a29190611f54565b610185565b005b6100c360048036038101906100be9190611eef565b6105a6565b005b6100df60048036038101906100da9190611f18565b610bf9565b005b6100fb60048036038101906100f69190611fa3565b6111e9565b005b61010561143b565b6040516101129190612339565b60405180910390f35b61013560048036038101906101309190611eef565b61159d565b604051610142919061235b565b60405180910390f35b61016560048036038101906101609190611eef565b6115fc565b005b61016f611a6b565b60405161017c9190612339565b60405180910390f35b60018060003373ffffffffffffffffffffffffffffffffffffffff1673ffffffffffffffffffffffffffffffffffffffff16815260200190815260200160002060000160009054906101000a900460ff1660ff1614610219576040517f08c379a0000000000000000000000000000000000000000000000000000000008152600401610210906123f6565b60405180910390fd5b6102228361159d565b610261576040517f08c379a000000000000000000000000000000000000000000000000000000000815260040161025890612416565b60405180910390fd5b60016000808573ffffffffffffffffffffffffffffffffffffffff1673ffffffffffffffffffffffffffffffffffffffff16815260200190815260200160002060003373ffffffffffffffffffffffffffffffffffffffff1673ffffffffffffffffffffffffffffffffffffffff16815260200190815260200160002060000160029054906101000a900460ff1660ff1614610332576040517f08c379a0000000000000000000000000000000000000000000000000000000008152600401610329906123d6565b60405180910390fd5b6000600260008573ffffffffffffffffffffffffffffffffffffffff1673ffffffffffffffffffffffffffffffffffffffff1681526020019081526020016000206003016001600260008773ffffffffffffffffffffffffffffffffffffffff1673ffffffffffffffffffffffffffffffffffffffff168152602001908152602001600020600301805490506103c891906124e0565b815481106103ff577f4e487b7100000000000000000000000000000000000000000000000000000000600052603260045260246000fd5b906000526020600020906005020160000160009054906101000a900461ffff169050808061042c90612574565b915050600260008573ffffffffffffffffffffffffffffffffffffffff1673ffffffffffffffffffffffffffffffffffffffff1681526020019081526020016000206003016040518060a001604052808361ffff1681526020018581526020018481526020013373ffffffffffffffffffffffffffffffffffffffff16815260200142815250908060018154018082558091505060019003906000526020600020906005020160009091909190915060008201518160000160006101000a81548161ffff021916908361ffff160217905550602082015181600101556040820151816002015560608201518160030160006101000a81548173ffffffffffffffffffffffffffffffffffffffff021916908373ffffffffffffffffffffffffffffffffffffffff1602179055506080820151816004015550507fc24e79725845725a4e07c0b148e2a1866b23297ea77702918ec83214b6cfbfa084338560405161059893929190612302565b60405180910390a150505050565b6001600260003373ffffffffffffffffffffffffffffffffffffffff1673ffffffffffffffffffffffffffffffffffffffff16815260200190815260200160002060000160009054906101000a900460ff1660ff161461063b576040517f08c379a000000000000000000000000000000000000000000000000000000000815260040161063290612416565b60405180910390fd5b60008060003373ffffffffffffffffffffffffffffffffffffffff1673ffffffffffffffffffffffffffffffffffffffff16815260200190815260200160002060008373ffffffffffffffffffffffffffffffffffffffff1673ffffffffffffffffffffffffffffffffffffffff16815260200190815260200160002060000160009054906101000a900460ff1660ff16148015610767575060008060003373ffffffffffffffffffffffffffffffffffffffff1673ffffffffffffffffffffffffffffffffffffffff16815260200190815260200160002060008373ffffffffffffffffffffffffffffffffffffffff1673ffffffffffffffffffffffffffffffffffffffff16815260200190815260200160002060000160019054906101000a900460ff1660ff16145b8015610801575060008060003373ffffffffffffffffffffffffffffffffffffffff1673ffffffffffffffffffffffffffffffffffffffff16815260200190815260200160002060008373ffffffffffffffffffffffffffffffffffffffff1673ffffffffffffffffffffffffffffffffffffffff16815260200190815260200160002060000160029054906101000a900460ff1660ff16145b610840576040517f08c379a000000000000000000000000000000000000000000000000000000000815260040161083790612396565b60405180910390fd5b8073ffffffffffffffffffffffffffffffffffffffff163373ffffffffffffffffffffffffffffffffffffffff1614156108af576040517f08c379a00000000000000000000000000000000000000000000000000000000081526004016108a6906123b6565b60405180910390fd5b60016000803373ffffffffffffffffffffffffffffffffffffffff1673ffffffffffffffffffffffffffffffffffffffff16815260200190815260200160002060008373ffffffffffffffffffffffffffffffffffffffff1673ffffffffffffffffffffffffffffffffffffffff16815260200190815260200160002060000160006101000a81548160ff021916908360ff16021790555060016000803373ffffffffffffffffffffffffffffffffffffffff1673ffffffffffffffffffffffffffffffffffffffff16815260200190815260200160002060008373ffffffffffffffffffffffffffffffffffffffff1673ffffffffffffffffffffffffffffffffffffffff16815260200190815260200160002060000160016101000a81548160ff021916908360ff16021790555060016000803373ffffffffffffffffffffffffffffffffffffffff1673ffffffffffffffffffffffffffffffffffffffff16815260200190815260200160002060008373ffffffffffffffffffffffffffffffffffffffff1673ffffffffffffffffffffffffffffffffffffffff16815260200190815260200160002060000160026101000a81548160ff021916908360ff1602179055507f9f520b3bfc56d06f7065d10b4683b3f57ac8895d5026cd176dee95ce1454cb8d3382604051610aa89291906122d9565b60405180910390a1600260003373ffffffffffffffffffffffffffffffffffffffff1673ffffffffffffffffffffffffffffffffffffffff168152602001908152602001600020600601819080600181540180825580915050600190039060005260206000200160009091909190916101000a81548173ffffffffffffffffffffffffffffffffffffffff021916908373ffffffffffffffffffffffffffffffffffffffff160217905550600160008273ffffffffffffffffffffffffffffffffffffffff1673ffffffffffffffffffffffffffffffffffffffff168152602001908152602001600020600501339080600181540180825580915050600190039060005260206000200160009091909190916101000a81548173ffffffffffffffffffffffffffffffffffffffff021916908373ffffffffffffffffffffffffffffffffffffffff16021790555050565b60018060003373ffffffffffffffffffffffffffffffffffffffff1673ffffffffffffffffffffffffffffffffffffffff16815260200190815260200160002060000160009054906101000a900460ff1660ff1614610c8d576040517f08c379a0000000000000000000000000000000000000000000000000000000008152600401610c84906123f6565b60405180910390fd5b60008060008473ffffffffffffffffffffffffffffffffffffffff1673ffffffffffffffffffffffffffffffffffffffff16815260200190815260200160002060008373ffffffffffffffffffffffffffffffffffffffff1673ffffffffffffffffffffffffffffffffffffffff16815260200190815260200160002060000160009054906101000a900460ff1660ff1614610d5e576040517f08c379a0000000000000000000000000000000000000000000000000000000008152600401610d5590612376565b60405180910390fd5b60008060003373ffffffffffffffffffffffffffffffffffffffff1673ffffffffffffffffffffffffffffffffffffffff16815260200190815260200160002060008373ffffffffffffffffffffffffffffffffffffffff1673ffffffffffffffffffffffffffffffffffffffff16815260200190815260200160002060000160009054906101000a900460ff1660ff1614610e2f576040517f08c379a0000000000000000000000000000000000000000000000000000000008152600401610e2690612396565b60405180910390fd5b8073ffffffffffffffffffffffffffffffffffffffff163373ffffffffffffffffffffffffffffffffffffffff161415610e9e576040517f08c379a0000000000000000000000000000000000000000000000000000000008152600401610e95906123b6565b60405180910390fd5b60016000808473ffffffffffffffffffffffffffffffffffffffff1673ffffffffffffffffffffffffffffffffffffffff16815260200190815260200160002060008373ffffffffffffffffffffffffffffffffffffffff1673ffffffffffffffffffffffffffffffffffffffff16815260200190815260200160002060000160006101000a81548160ff021916908360ff16021790555060016000808473ffffffffffffffffffffffffffffffffffffffff1673ffffffffffffffffffffffffffffffffffffffff16815260200190815260200160002060008373ffffffffffffffffffffffffffffffffffffffff1673ffffffffffffffffffffffffffffffffffffffff16815260200190815260200160002060000160016101000a81548160ff021916908360ff16021790555060008060008473ffffffffffffffffffffffffffffffffffffffff1673ffffffffffffffffffffffffffffffffffffffff16815260200190815260200160002060008373ffffffffffffffffffffffffffffffffffffffff1673ffffffffffffffffffffffffffffffffffffffff16815260200190815260200160002060000160026101000a81548160ff021916908360ff1602179055507f9f520b3bfc56d06f7065d10b4683b3f57ac8895d5026cd176dee95ce1454cb8d33826040516110979291906122d9565b60405180910390a1600260008373ffffffffffffffffffffffffffffffffffffffff1673ffffffffffffffffffffffffffffffffffffffff168152602001908152602001600020600601819080600181540180825580915050600190039060005260206000200160009091909190916101000a81548173ffffffffffffffffffffffffffffffffffffffff021916908373ffffffffffffffffffffffffffffffffffffffff160217905550600160008273ffffffffffffffffffffffffffffffffffffffff1673ffffffffffffffffffffffffffffffffffffffff168152602001908152602001600020600501829080600181540180825580915050600190039060005260206000200160009091909190916101000a81548173ffffffffffffffffffffffffffffffffffffffff021916908373ffffffffffffffffffffffffffffffffffffffff1602179055505050565b6001600260003373ffffffffffffffffffffffffffffffffffffffff1673ffffffffffffffffffffffffffffffffffffffff16815260200190815260200160002060000160009054906101000a900460ff1660ff161461127e576040517f08c379a000000000000000000000000000000000000000000000000000000000815260040161127590612416565b60405180910390fd5b6112873361159d565b6112c6576040517f08c379a00000000000000000000000000000000000000000000000000000000081526004016112bd90612416565b60405180910390fd5b600260003373ffffffffffffffffffffffffffffffffffffffff1673ffffffffffffffffffffffffffffffffffffffff1681526020019081526020016000206003016040518060a00160405280600161ffff168152602001838152602001600080191681526020013373ffffffffffffffffffffffffffffffffffffffff16815260200142815250908060018154018082558091505060019003906000526020600020906005020160009091909190915060008201518160000160006101000a81548161ffff021916908361ffff160217905550602082015181600101556040820151816002015560608201518160030160006101000a81548173ffffffffffffffffffffffffffffffffffffffff021916908373ffffffffffffffffffffffffffffffffffffffff1602179055506080820151816004015550507f4226edf06d7586d3156506407b6478715b1e68c92f3b5acc6bf7a03dcacff9a73360405161143091906122be565b60405180910390a150565b606060018060003373ffffffffffffffffffffffffffffffffffffffff1673ffffffffffffffffffffffffffffffffffffffff16815260200190815260200160002060000160009054906101000a900460ff1660ff16146114d1576040517f08c379a00000000000000000000000000000000000000000000000000000000081526004016114c8906123f6565b60405180910390fd5b600160003373ffffffffffffffffffffffffffffffffffffffff1673ffffffffffffffffffffffffffffffffffffffff16815260200190815260200160002060050180548060200260200160405190810160405280929190818152602001828054801561159357602002820191906000526020600020905b8160009054906101000a900473ffffffffffffffffffffffffffffffffffffffff1673ffffffffffffffffffffffffffffffffffffffff1681526020019060010190808311611549575b5050505050905090565b60006001600260008473ffffffffffffffffffffffffffffffffffffffff1673ffffffffffffffffffffffffffffffffffffffff16815260200190815260200160002060000160009054906101000a900460ff1660ff16149050919050565b6001600260003373ffffffffffffffffffffffffffffffffffffffff1673ffffffffffffffffffffffffffffffffffffffff16815260200190815260200160002060000160009054906101000a900460ff1660ff1614611691576040517f08c379a000000000000000000000000000000000000000000000000000000000815260040161168890612416565b60405180910390fd5b60016000803373ffffffffffffffffffffffffffffffffffffffff1673ffffffffffffffffffffffffffffffffffffffff16815260200190815260200160002060008373ffffffffffffffffffffffffffffffffffffffff1673ffffffffffffffffffffffffffffffffffffffff16815260200190815260200160002060000160009054906101000a900460ff1660ff1614611762576040517f08c379a000000000000000000000000000000000000000000000000000000000815260040161175990612436565b60405180910390fd5b8073ffffffffffffffffffffffffffffffffffffffff163373ffffffffffffffffffffffffffffffffffffffff1614156117d1576040517f08c379a00000000000000000000000000000000000000000000000000000000081526004016117c890612456565b60405180910390fd5b60008060003373ffffffffffffffffffffffffffffffffffffffff1673ffffffffffffffffffffffffffffffffffffffff16815260200190815260200160002060008373ffffffffffffffffffffffffffffffffffffffff1673ffffffffffffffffffffffffffffffffffffffff16815260200190815260200160002060000160006101000a81548160ff021916908360ff16021790555060008060003373ffffffffffffffffffffffffffffffffffffffff1673ffffffffffffffffffffffffffffffffffffffff16815260200190815260200160002060008373ffffffffffffffffffffffffffffffffffffffff1673ffffffffffffffffffffffffffffffffffffffff16815260200190815260200160002060000160016101000a81548160ff021916908360ff16021790555060008060003373ffffffffffffffffffffffffffffffffffffffff1673ffffffffffffffffffffffffffffffffffffffff16815260200190815260200160002060008373ffffffffffffffffffffffffffffffffffffffff1673ffffffffffffffffffffffffffffffffffffffff16815260200190815260200160002060000160026101000a81548160ff021916908360ff1602179055507f825c8be24eb0df19500f63e86c29e7d0d951e73056b889b891d85e40938d9b6e33826040516119ca9291906122d9565b60405180910390a1611a1d600260003373ffffffffffffffffffffffffffffffffffffffff1673ffffffffffffffffffffffffffffffffffffffff16815260200190815260200160002060060182611bce565b611a68600160008373ffffffffffffffffffffffffffffffffffffffff1673ffffffffffffffffffffffffffffffffffffffff16815260200190815260200160002060050133611bce565b50565b60606001600260003373ffffffffffffffffffffffffffffffffffffffff1673ffffffffffffffffffffffffffffffffffffffff16815260200190815260200160002060000160009054906101000a900460ff1660ff1614611b02576040517f08c379a0000000000000000000000000000000000000000000000000000000008152600401611af990612416565b60405180910390fd5b600260003373ffffffffffffffffffffffffffffffffffffffff1673ffffffffffffffffffffffffffffffffffffffff168152602001908152602001600020600601805480602002602001604051908101604052809291908181526020018280548015611bc457602002820191906000526020600020905b8160009054906101000a900473ffffffffffffffffffffffffffffffffffffffff1673ffffffffffffffffffffffffffffffffffffffff1681526020019060010190808311611b7a575b5050505050905090565b60008060005b84805490508161ffff161015611c9a578373ffffffffffffffffffffffffffffffffffffffff16858261ffff1681548110611c38577f4e487b7100000000000000000000000000000000000000000000000000000000600052603260045260246000fd5b9060005260206000200160009054906101000a900473ffffffffffffffffffffffffffffffffffffffff1673ffffffffffffffffffffffffffffffffffffffff161415611c8757809250600191505b8080611c9290612574565b915050611bd4565b5080611cdb576040517f08c379a0000000000000000000000000000000000000000000000000000000008152600401611cd290612476565b60405180910390fd5b600184805490501415611d595783805480611d1f577f4e487b7100000000000000000000000000000000000000000000000000000000600052603160045260246000fd5b6001900381819060005260206000200160006101000a81549073ffffffffffffffffffffffffffffffffffffffff02191690559055611ebf565b8360018580549050611d6b91906124e0565b81548110611da2577f4e487b7100000000000000000000000000000000000000000000000000000000600052603260045260246000fd5b9060005260206000200160009054906101000a900473ffffffffffffffffffffffffffffffffffffffff16848361ffff1681548110611e0a577f4e487b7100000000000000000000000000000000000000000000000000000000600052603260045260246000fd5b9060005260206000200160006101000a81548173ffffffffffffffffffffffffffffffffffffffff021916908373ffffffffffffffffffffffffffffffffffffffff16021790555083805480611e89577f4e487b7100000000000000000000000000000000000000000000000000000000600052603160045260246000fd5b6001900381819060005260206000200160006101000a81549073ffffffffffffffffffffffffffffffffffffffff021916905590555b50505050565b600081359050611ed4816125ce565b92915050565b600081359050611ee9816125e5565b92915050565b600060208284031215611f0157600080fd5b6000611f0f84828501611ec5565b91505092915050565b60008060408385031215611f2b57600080fd5b6000611f3985828601611ec5565b9250506020611f4a85828601611ec5565b9150509250929050565b600080600060608486031215611f6957600080fd5b6000611f7786828701611ec5565b9350506020611f8886828701611eda565b9250506040611f9986828701611eda565b9150509250925092565b600060208284031215611fb557600080fd5b6000611fc384828501611eda565b91505092915050565b6000611fd88383611fe4565b60208301905092915050565b611fed81612514565b82525050565b611ffc81612514565b82525050565b600061200d826124a6565b61201781856124be565b935061202283612496565b8060005b8381101561205357815161203a8882611fcc565b9750612045836124b1565b925050600181019050612026565b5085935050505092915050565b61206981612526565b82525050565b61207881612532565b82525050565b600061208b601d836124cf565b91507f416c726561647920417574686f72697a65642062792050617469656e740000006000830152602082019050919050565b60006120cb6012836124cf565b91507f416c726561647920417574686f72697a656400000000000000000000000000006000830152602082019050919050565b600061210b6012836124cf565b91507f43616e27742061646420796f757273656c6600000000000000000000000000006000830152602082019050919050565b600061214b601b836124cf565b91507f446f63746f7220686173206e6f207570646174652072696768747300000000006000830152602082019050919050565b600061218b6017836124cf565b91507f5265676973746572656420446f63746f7273206f6e6c790000000000000000006000830152602082019050919050565b60006121cb6015836124cf565b91507f50617469656e7420646f65736e277420657869737400000000000000000000006000830152602082019050919050565b600061220b6016836124cf565b91507f416c7265616479204e6f7420417574686f72697a6564000000000000000000006000830152602082019050919050565b600061224b6015836124cf565b91507f43616e27742072656d6f766520796f757273656c6600000000000000000000006000830152602082019050919050565b600061228b600e836124cf565b91507f4e6f206974656d7320666f756e640000000000000000000000000000000000006000830152602082019050919050565b60006020820190506122d36000830184611ff3565b92915050565b60006040820190506122ee6000830185611ff3565b6122fb6020830184611ff3565b9392505050565b60006060820190506123176000830186611ff3565b6123246020830185611ff3565b612331604083018461206f565b949350505050565b600060208201905081810360008301526123538184612002565b905092915050565b60006020820190506123706000830184612060565b92915050565b6000602082019050818103600083015261238f8161207e565b9050919050565b600060208201905081810360008301526123af816120be565b9050919050565b600060208201905081810360008301526123cf816120fe565b9050919050565b600060208201905081810360008301526123ef8161213e565b9050919050565b6000602082019050818103600083015261240f8161217e565b9050919050565b6000602082019050818103600083015261242f816121be565b9050919050565b6000602082019050818103600083015261244f816121fe565b9050919050565b6000602082019050818103600083015261246f8161223e565b9050919050565b6000602082019050818103600083015261248f8161227e565b9050919050565b6000819050602082019050919050565b600081519050919050565b6000602082019050919050565b600082825260208201905092915050565b600082825260208201905092915050565b60006124eb8261256a565b91506124f68361256a565b9250828210156125095761250861259f565b5b828203905092915050565b600061251f8261254a565b9050919050565b60008115159050919050565b6000819050919050565b600061ffff82169050919050565b600073ffffffffffffffffffffffffffffffffffffffff82169050919050565b6000819050919050565b600061257f8261253c565b915061ffff8214156125945761259361259f565b5b600182019050919050565b7f4e487b7100000000000000000000000000000000000000000000000000000000600052601160045260246000fd5b6125d781612514565b81146125e257600080fd5b50565b6125ee81612532565b81146125f957600080fd5b5056fea26469706673582212206de229a07f992bbc63b328a6deabe02baeef1e07570cbf63863fd91a830273bb64736f6c63430008000033",
  "linkReferences": {},
  "deployedLinkReferences": {}
}