{
  "_format": "hh-sol-artifact-1",
  "contractName": "Interaction",
  "sourceName": "contracts/Interaction.sol",
  "abi": [
    {
      "anonymous": false,
      "inputs": [
        {
          "indexed": false,
          "internalType": "address",
          "name": "patient",
          "type": "address"
        },
        {
          "indexed": false,
          "internalType": "address",
          "name": "doctor",
          "type": "address"
        }
      ],
      "name": "AccessGranted",
      "type": "event"
    },
    {
      "anonymous": false,
      "inputs": [
        {
          "indexed": false,
          "internalType": "address",
          "name": "patient",
          "type": "address"
        },
        {
          "indexed": false,
          "internalType": "address",
          "name": "doctor",
          "type": "address"
        }
      ],
      "name": "AccessRevoked",
      "type": "event"
    },
    {
      "anonymous": false,
      "inputs": [
        {
          "indexed": false,
          "internalType": "address",
          "name": "patient",
          "type": "address"
        }
      ],
      "name": "CreateEHR",
      "type": "event"
    },
    {
      "anonymous": false,
      "inputs": [
        {
          "indexed": false,
          "internalType": "address",
          "name": "patient",
          "type": "address"
        },
        {
          "indexed": false,
          "internalType": "address",
          "name": "serviceProvider",
          "type": "address"
        },
        {
          "indexed": false,
          "internalType": "bytes32",
          "name": "EHRhash",
          "type": "bytes32"
        }
      ],
      "name": "UpdatedEHR",
      "type": "event"
    },
    {
      "inputs": [
        {
          "internalType": "bytes32",
          "name": "EHRhash",
          "type": "bytes32"
        }
      ],
      "name": "createDefaultEHR",
      "outputs": [],
      "stateMutability": "nonpayable",
      "type": "function"
    },
    {
      "inputs": [],
      "name": "getAuthDoctors",
      "outputs": [
        {
          "internalType": "address[]",
          "name": "",
          "type": "address[]"
        }
      ],
      "stateMutability": "view",
      "type": "function"
    },
    {
      "inputs": [],
      "name": "getAuthPatients",
      "outputs": [
        {
          "internalType": "address[]",
          "name": "",
          "type": "address[]"
        }
      ],
      "stateMutability": "view",
      "type": "function"
    },
    {
      "inputs": [
        {
          "internalType": "address",
          "name": "_doctorAddress",
          "type": "address"
        }
      ],
      "name": "grantAccess",
      "outputs": [],
      "stateMutability": "nonpayable",
      "type": "function"
    },
    {
      "inputs": [
        {
          "internalType": "address",
          "name": "_patientAddress",
          "type": "address"
        },
        {
          "internalType": "address",
          "name": "_doctorAddress",
          "type": "address"
        }
      ],
      "name": "grantAccessDocToDoc",
      "outputs": [],
      "stateMutability": "nonpayable",
      "type": "function"
    },
    {
      "inputs": [
        {
          "internalType": "address",
          "name": "_doctorAddress",
          "type": "address"
        }
      ],
      "name": "revokeAccess",
      "outputs": [],
      "stateMutability": "nonpayable",
      "type": "function"
    },
    {
      "inputs": [
        {
          "internalType": "address",
          "name": "_address",
          "type": "address"
        }
      ],
      "name": "seePatientExists",
      "outputs": [
        {
          "internalType": "bool",
          "name": "exists",
          "type": "bool"
        }
      ],
      "stateMutability": "view",
      "type": "function"
    },
    {
      "inputs": [
        {
          "internalType": "address",
          "name": "_patientAddress",
          "type": "address"
        },
        {
          "internalType": "bytes32",
          "name": "EHRhash",
          "type": "bytes32"
        }
      ],
      "name": "updateEHR",
      "outputs": [],
      "stateMutability": "nonpayable",
      "type": "function"
    }
  ],
  "bytecode": "0x608060405234801561001057600080fd5b506125fa806100206000396000f3fe608060405234801561001057600080fd5b50600436106100885760003560e01c806368da81d31161005b57806368da81d3146100ff5780637f399dbf1461012f57806385e685311461014b578063c068d1c51461016757610088565b80630ae5e7391461008d578063221e6e06146100a957806347eac067146100c557806347eec307146100e1575b600080fd5b6100a760048036038101906100a29190611eca565b610185565b005b6100c360048036038101906100be9190611ef3565b6107d8565b005b6100df60048036038101906100da9190611f6b565b610dc8565b005b6100e9611006565b6040516100f69190612301565b60405180910390f35b61011960048036038101906101149190611eca565b611168565b6040516101269190612323565b60405180910390f35b61014960048036038101906101449190611f2f565b6111c7565b005b61016560048036038101906101609190611eca565b6115d7565b005b61016f611a46565b60405161017c9190612301565b60405180910390f35b6001600260003373ffffffffffffffffffffffffffffffffffffffff1673ffffffffffffffffffffffffffffffffffffffff16815260200190815260200160002060000160009054906101000a900460ff1660ff161461021a576040517f08c379a0000000000000000000000000000000000000000000000000000000008152600401610211906123de565b60405180910390fd5b60008060003373ffffffffffffffffffffffffffffffffffffffff1673ffffffffffffffffffffffffffffffffffffffff16815260200190815260200160002060008373ffffffffffffffffffffffffffffffffffffffff1673ffffffffffffffffffffffffffffffffffffffff16815260200190815260200160002060000160009054906101000a900460ff1660ff16148015610346575060008060003373ffffffffffffffffffffffffffffffffffffffff1673ffffffffffffffffffffffffffffffffffffffff16815260200190815260200160002060008373ffffffffffffffffffffffffffffffffffffffff1673ffffffffffffffffffffffffffffffffffffffff16815260200190815260200160002060000160019054906101000a900460ff1660ff16145b80156103e0575060008060003373ffffffffffffffffffffffffffffffffffffffff1673ffffffffffffffffffffffffffffffffffffffff16815260200190815260200160002060008373ffffffffffffffffffffffffffffffffffffffff1673ffffffffffffffffffffffffffffffffffffffff16815260200190815260200160002060000160029054906101000a900460ff1660ff16145b61041f576040517f08c379a00000000000000000000000000000000000000000000000000000000081526004016104169061235e565b60405180910390fd5b8073ffffffffffffffffffffffffffffffffffffffff163373ffffffffffffffffffffffffffffffffffffffff16141561048e576040517f08c379a00000000000000000000000000000000000000000000000000000000081526004016104859061237e565b60405180910390fd5b60016000803373ffffffffffffffffffffffffffffffffffffffff1673ffffffffffffffffffffffffffffffffffffffff16815260200190815260200160002060008373ffffffffffffffffffffffffffffffffffffffff1673ffffffffffffffffffffffffffffffffffffffff16815260200190815260200160002060000160006101000a81548160ff021916908360ff16021790555060016000803373ffffffffffffffffffffffffffffffffffffffff1673ffffffffffffffffffffffffffffffffffffffff16815260200190815260200160002060008373ffffffffffffffffffffffffffffffffffffffff1673ffffffffffffffffffffffffffffffffffffffff16815260200190815260200160002060000160016101000a81548160ff021916908360ff16021790555060016000803373ffffffffffffffffffffffffffffffffffffffff1673ffffffffffffffffffffffffffffffffffffffff16815260200190815260200160002060008373ffffffffffffffffffffffffffffffffffffffff1673ffffffffffffffffffffffffffffffffffffffff16815260200190815260200160002060000160026101000a81548160ff021916908360ff1602179055507f9f520b3bfc56d06f7065d10b4683b3f57ac8895d5026cd176dee95ce1454cb8d33826040516106879291906122a1565b60405180910390a1600260003373ffffffffffffffffffffffffffffffffffffffff1673ffffffffffffffffffffffffffffffffffffffff168152602001908152602001600020600601819080600181540180825580915050600190039060005260206000200160009091909190916101000a81548173ffffffffffffffffffffffffffffffffffffffff021916908373ffffffffffffffffffffffffffffffffffffffff160217905550600160008273ffffffffffffffffffffffffffffffffffffffff1673ffffffffffffffffffffffffffffffffffffffff168152602001908152602001600020600501339080600181540180825580915050600190039060005260206000200160009091909190916101000a81548173ffffffffffffffffffffffffffffffffffffffff021916908373ffffffffffffffffffffffffffffffffffffffff16021790555050565b60018060003373ffffffffffffffffffffffffffffffffffffffff1673ffffffffffffffffffffffffffffffffffffffff16815260200190815260200160002060000160009054906101000a900460ff1660ff161461086c576040517f08c379a0000000000000000000000000000000000000000000000000000000008152600401610863906123be565b60405180910390fd5b60008060008473ffffffffffffffffffffffffffffffffffffffff1673ffffffffffffffffffffffffffffffffffffffff16815260200190815260200160002060008373ffffffffffffffffffffffffffffffffffffffff1673ffffffffffffffffffffffffffffffffffffffff16815260200190815260200160002060000160009054906101000a900460ff1660ff161461093d576040517f08c379a00000000000000000000000000000000000000000000000000000000081526004016109349061233e565b60405180910390fd5b60008060003373ffffffffffffffffffffffffffffffffffffffff1673ffffffffffffffffffffffffffffffffffffffff16815260200190815260200160002060008373ffffffffffffffffffffffffffffffffffffffff1673ffffffffffffffffffffffffffffffffffffffff16815260200190815260200160002060000160009054906101000a900460ff1660ff1614610a0e576040517f08c379a0000000000000000000000000000000000000000000000000000000008152600401610a059061235e565b60405180910390fd5b8073ffffffffffffffffffffffffffffffffffffffff163373ffffffffffffffffffffffffffffffffffffffff161415610a7d576040517f08c379a0000000000000000000000000000000000000000000000000000000008152600401610a749061237e565b60405180910390fd5b60016000808473ffffffffffffffffffffffffffffffffffffffff1673ffffffffffffffffffffffffffffffffffffffff16815260200190815260200160002060008373ffffffffffffffffffffffffffffffffffffffff1673ffffffffffffffffffffffffffffffffffffffff16815260200190815260200160002060000160006101000a81548160ff021916908360ff16021790555060016000808473ffffffffffffffffffffffffffffffffffffffff1673ffffffffffffffffffffffffffffffffffffffff16815260200190815260200160002060008373ffffffffffffffffffffffffffffffffffffffff1673ffffffffffffffffffffffffffffffffffffffff16815260200190815260200160002060000160016101000a81548160ff021916908360ff16021790555060008060008473ffffffffffffffffffffffffffffffffffffffff1673ffffffffffffffffffffffffffffffffffffffff16815260200190815260200160002060008373ffffffffffffffffffffffffffffffffffffffff1673ffffffffffffffffffffffffffffffffffffffff16815260200190815260200160002060000160026101000a81548160ff021916908360ff1602179055507f9f520b3bfc56d06f7065d10b4683b3f57ac8895d5026cd176dee95ce1454cb8d3382604051610c769291906122a1565b60405180910390a1600260008373ffffffffffffffffffffffffffffffffffffffff1673ffffffffffffffffffffffffffffffffffffffff168152602001908152602001600020600601819080600181540180825580915050600190039060005260206000200160009091909190916101000a81548173ffffffffffffffffffffffffffffffffffffffff021916908373ffffffffffffffffffffffffffffffffffffffff160217905550600160008273ffffffffffffffffffffffffffffffffffffffff1673ffffffffffffffffffffffffffffffffffffffff168152602001908152602001600020600501829080600181540180825580915050600190039060005260206000200160009091909190916101000a81548173ffffffffffffffffffffffffffffffffffffffff021916908373ffffffffffffffffffffffffffffffffffffffff1602179055505050565b6001600260003373ffffffffffffffffffffffffffffffffffffffff1673ffffffffffffffffffffffffffffffffffffffff16815260200190815260200160002060000160009054906101000a900460ff1660ff1614610e5d576040517f08c379a0000000000000000000000000000000000000000000000000000000008152600401610e54906123de565b60405180910390fd5b610e6633611168565b610ea5576040517f08c379a0000000000000000000000000000000000000000000000000000000008152600401610e9c906123de565b60405180910390fd5b600260003373ffffffffffffffffffffffffffffffffffffffff1673ffffffffffffffffffffffffffffffffffffffff1681526020019081526020016000206003016040518060800160405280600161ffff1681526020018381526020013373ffffffffffffffffffffffffffffffffffffffff16815260200142815250908060018154018082558091505060019003906000526020600020906004020160009091909190915060008201518160000160006101000a81548161ffff021916908361ffff1602179055506020820151816001015560408201518160020160006101000a81548173ffffffffffffffffffffffffffffffffffffffff021916908373ffffffffffffffffffffffffffffffffffffffff1602179055506060820151816003015550507f4226edf06d7586d3156506407b6478715b1e68c92f3b5acc6bf7a03dcacff9a733604051610ffb9190612286565b60405180910390a150565b606060018060003373ffffffffffffffffffffffffffffffffffffffff1673ffffffffffffffffffffffffffffffffffffffff16815260200190815260200160002060000160009054906101000a900460ff1660ff161461109c576040517f08c379a0000000000000000000000000000000000000000000000000000000008152600401611093906123be565b60405180910390fd5b600160003373ffffffffffffffffffffffffffffffffffffffff1673ffffffffffffffffffffffffffffffffffffffff16815260200190815260200160002060050180548060200260200160405190810160405280929190818152602001828054801561115e57602002820191906000526020600020905b8160009054906101000a900473ffffffffffffffffffffffffffffffffffffffff1673ffffffffffffffffffffffffffffffffffffffff1681526020019060010190808311611114575b5050505050905090565b60006001600260008473ffffffffffffffffffffffffffffffffffffffff1673ffffffffffffffffffffffffffffffffffffffff16815260200190815260200160002060000160009054906101000a900460ff1660ff16149050919050565b60018060003373ffffffffffffffffffffffffffffffffffffffff1673ffffffffffffffffffffffffffffffffffffffff16815260200190815260200160002060000160009054906101000a900460ff1660ff161461125b576040517f08c379a0000000000000000000000000000000000000000000000000000000008152600401611252906123be565b60405180910390fd5b61126482611168565b6112a3576040517f08c379a000000000000000000000000000000000000000000000000000000000815260040161129a906123de565b60405180910390fd5b60016000808473ffffffffffffffffffffffffffffffffffffffff1673ffffffffffffffffffffffffffffffffffffffff16815260200190815260200160002060003373ffffffffffffffffffffffffffffffffffffffff1673ffffffffffffffffffffffffffffffffffffffff16815260200190815260200160002060000160029054906101000a900460ff1660ff1614611374576040517f08c379a000000000000000000000000000000000000000000000000000000000815260040161136b9061239e565b60405180910390fd5b6000600260008473ffffffffffffffffffffffffffffffffffffffff1673ffffffffffffffffffffffffffffffffffffffff1681526020019081526020016000206003016001600260008673ffffffffffffffffffffffffffffffffffffffff1673ffffffffffffffffffffffffffffffffffffffff1681526020019081526020016000206003018054905061140a91906124a8565b81548110611441577f4e487b7100000000000000000000000000000000000000000000000000000000600052603260045260246000fd5b906000526020600020906004020160000160009054906101000a900461ffff169050808061146e9061253c565b915050600260008473ffffffffffffffffffffffffffffffffffffffff1673ffffffffffffffffffffffffffffffffffffffff16815260200190815260200160002060030160405180608001604052808361ffff1681526020018481526020013373ffffffffffffffffffffffffffffffffffffffff16815260200142815250908060018154018082558091505060019003906000526020600020906004020160009091909190915060008201518160000160006101000a81548161ffff021916908361ffff1602179055506020820151816001015560408201518160020160006101000a81548173ffffffffffffffffffffffffffffffffffffffff021916908373ffffffffffffffffffffffffffffffffffffffff1602179055506060820151816003015550507fc24e79725845725a4e07c0b148e2a1866b23297ea77702918ec83214b6cfbfa08333846040516115ca939291906122ca565b60405180910390a1505050565b6001600260003373ffffffffffffffffffffffffffffffffffffffff1673ffffffffffffffffffffffffffffffffffffffff16815260200190815260200160002060000160009054906101000a900460ff1660ff161461166c576040517f08c379a0000000000000000000000000000000000000000000000000000000008152600401611663906123de565b60405180910390fd5b60016000803373ffffffffffffffffffffffffffffffffffffffff1673ffffffffffffffffffffffffffffffffffffffff16815260200190815260200160002060008373ffffffffffffffffffffffffffffffffffffffff1673ffffffffffffffffffffffffffffffffffffffff16815260200190815260200160002060000160009054906101000a900460ff1660ff161461173d576040517f08c379a0000000000000000000000000000000000000000000000000000000008152600401611734906123fe565b60405180910390fd5b8073ffffffffffffffffffffffffffffffffffffffff163373ffffffffffffffffffffffffffffffffffffffff1614156117ac576040517f08c379a00000000000000000000000000000000000000000000000000000000081526004016117a39061241e565b60405180910390fd5b60008060003373ffffffffffffffffffffffffffffffffffffffff1673ffffffffffffffffffffffffffffffffffffffff16815260200190815260200160002060008373ffffffffffffffffffffffffffffffffffffffff1673ffffffffffffffffffffffffffffffffffffffff16815260200190815260200160002060000160006101000a81548160ff021916908360ff16021790555060008060003373ffffffffffffffffffffffffffffffffffffffff1673ffffffffffffffffffffffffffffffffffffffff16815260200190815260200160002060008373ffffffffffffffffffffffffffffffffffffffff1673ffffffffffffffffffffffffffffffffffffffff16815260200190815260200160002060000160016101000a81548160ff021916908360ff16021790555060008060003373ffffffffffffffffffffffffffffffffffffffff1673ffffffffffffffffffffffffffffffffffffffff16815260200190815260200160002060008373ffffffffffffffffffffffffffffffffffffffff1673ffffffffffffffffffffffffffffffffffffffff16815260200190815260200160002060000160026101000a81548160ff021916908360ff1602179055507f825c8be24eb0df19500f63e86c29e7d0d951e73056b889b891d85e40938d9b6e33826040516119a59291906122a1565b60405180910390a16119f8600260003373ffffffffffffffffffffffffffffffffffffffff1673ffffffffffffffffffffffffffffffffffffffff16815260200190815260200160002060060182611ba9565b611a43600160008373ffffffffffffffffffffffffffffffffffffffff1673ffffffffffffffffffffffffffffffffffffffff16815260200190815260200160002060050133611ba9565b50565b60606001600260003373ffffffffffffffffffffffffffffffffffffffff1673ffffffffffffffffffffffffffffffffffffffff16815260200190815260200160002060000160009054906101000a900460ff1660ff1614611add576040517f08c379a0000000000000000000000000000000000000000000000000000000008152600401611ad4906123de565b60405180910390fd5b600260003373ffffffffffffffffffffffffffffffffffffffff1673ffffffffffffffffffffffffffffffffffffffff168152602001908152602001600020600601805480602002602001604051908101604052809291908181526020018280548015611b9f57602002820191906000526020600020905b8160009054906101000a900473ffffffffffffffffffffffffffffffffffffffff1673ffffffffffffffffffffffffffffffffffffffff1681526020019060010190808311611b55575b5050505050905090565b60008060005b84805490508161ffff161015611c75578373ffffffffffffffffffffffffffffffffffffffff16858261ffff1681548110611c13577f4e487b7100000000000000000000000000000000000000000000000000000000600052603260045260246000fd5b9060005260206000200160009054906101000a900473ffffffffffffffffffffffffffffffffffffffff1673ffffffffffffffffffffffffffffffffffffffff161415611c6257809250600191505b8080611c6d9061253c565b915050611baf565b5080611cb6576040517f08c379a0000000000000000000000000000000000000000000000000000000008152600401611cad9061243e565b60405180910390fd5b600184805490501415611d345783805480611cfa577f4e487b7100000000000000000000000000000000000000000000000000000000600052603160045260246000fd5b6001900381819060005260206000200160006101000a81549073ffffffffffffffffffffffffffffffffffffffff02191690559055611e9a565b8360018580549050611d4691906124a8565b81548110611d7d577f4e487b7100000000000000000000000000000000000000000000000000000000600052603260045260246000fd5b9060005260206000200160009054906101000a900473ffffffffffffffffffffffffffffffffffffffff16848361ffff1681548110611de5577f4e487b7100000000000000000000000000000000000000000000000000000000600052603260045260246000fd5b9060005260206000200160006101000a81548173ffffffffffffffffffffffffffffffffffffffff021916908373ffffffffffffffffffffffffffffffffffffffff16021790555083805480611e64577f4e487b7100000000000000000000000000000000000000000000000000000000600052603160045260246000fd5b6001900381819060005260206000200160006101000a81549073ffffffffffffffffffffffffffffffffffffffff021916905590555b50505050565b600081359050611eaf81612596565b92915050565b600081359050611ec4816125ad565b92915050565b600060208284031215611edc57600080fd5b6000611eea84828501611ea0565b91505092915050565b60008060408385031215611f0657600080fd5b6000611f1485828601611ea0565b9250506020611f2585828601611ea0565b9150509250929050565b60008060408385031215611f4257600080fd5b6000611f5085828601611ea0565b9250506020611f6185828601611eb5565b9150509250929050565b600060208284031215611f7d57600080fd5b6000611f8b84828501611eb5565b91505092915050565b6000611fa08383611fac565b60208301905092915050565b611fb5816124dc565b82525050565b611fc4816124dc565b82525050565b6000611fd58261246e565b611fdf8185612486565b9350611fea8361245e565b8060005b8381101561201b5781516120028882611f94565b975061200d83612479565b925050600181019050611fee565b5085935050505092915050565b612031816124ee565b82525050565b612040816124fa565b82525050565b6000612053601d83612497565b91507f416c726561647920417574686f72697a65642062792050617469656e740000006000830152602082019050919050565b6000612093601283612497565b91507f416c726561647920417574686f72697a656400000000000000000000000000006000830152602082019050919050565b60006120d3601283612497565b91507f43616e27742061646420796f757273656c6600000000000000000000000000006000830152602082019050919050565b6000612113601b83612497565b91507f446f63746f7220686173206e6f207570646174652072696768747300000000006000830152602082019050919050565b6000612153601783612497565b91507f5265676973746572656420446f63746f7273206f6e6c790000000000000000006000830152602082019050919050565b6000612193601583612497565b91507f50617469656e7420646f65736e277420657869737400000000000000000000006000830152602082019050919050565b60006121d3601683612497565b91507f416c7265616479204e6f7420417574686f72697a6564000000000000000000006000830152602082019050919050565b6000612213601583612497565b91507f43616e27742072656d6f766520796f757273656c6600000000000000000000006000830152602082019050919050565b6000612253600e83612497565b91507f4e6f206974656d7320666f756e640000000000000000000000000000000000006000830152602082019050919050565b600060208201905061229b6000830184611fbb565b92915050565b60006040820190506122b66000830185611fbb565b6122c36020830184611fbb565b9392505050565b60006060820190506122df6000830186611fbb565b6122ec6020830185611fbb565b6122f96040830184612037565b949350505050565b6000602082019050818103600083015261231b8184611fca565b905092915050565b60006020820190506123386000830184612028565b92915050565b6000602082019050818103600083015261235781612046565b9050919050565b6000602082019050818103600083015261237781612086565b9050919050565b60006020820190508181036000830152612397816120c6565b9050919050565b600060208201905081810360008301526123b781612106565b9050919050565b600060208201905081810360008301526123d781612146565b9050919050565b600060208201905081810360008301526123f781612186565b9050919050565b60006020820190508181036000830152612417816121c6565b9050919050565b6000602082019050818103600083015261243781612206565b9050919050565b6000602082019050818103600083015261245781612246565b9050919050565b6000819050602082019050919050565b600081519050919050565b6000602082019050919050565b600082825260208201905092915050565b600082825260208201905092915050565b60006124b382612532565b91506124be83612532565b9250828210156124d1576124d0612567565b5b828203905092915050565b60006124e782612512565b9050919050565b60008115159050919050565b6000819050919050565b600061ffff82169050919050565b600073ffffffffffffffffffffffffffffffffffffffff82169050919050565b6000819050919050565b600061254782612504565b915061ffff82141561255c5761255b612567565b5b600182019050919050565b7f4e487b7100000000000000000000000000000000000000000000000000000000600052601160045260246000fd5b61259f816124dc565b81146125aa57600080fd5b50565b6125b6816124fa565b81146125c157600080fd5b5056fea264697066735822122084aa16f82a21fe06ef8a0232bcb5bcc7cbace211bb9e3d0eb7bef3ebe15a294564736f6c63430008000033",
  "linkReferences": {},
  "deployedLinkReferences": {}
}