{
  "_format": "hh-sol-artifact-1",
  "contractName": "MedicalBlock",
  "sourceName": "contracts/MedicalBlock.sol",
  "abi": [
    {
      "inputs": [],
      "stateMutability": "nonpayable",
      "type": "constructor"
    },
    {
      "anonymous": false,
      "inputs": [
        {
          "indexed": false,
          "internalType": "address",
          "name": "patient",
          "type": "address"
        },
        {
          "indexed": false,
          "internalType": "address",
          "name": "doctor",
          "type": "address"
        }
      ],
      "name": "AccessGranted",
      "type": "event"
    },
    {
      "anonymous": false,
      "inputs": [
        {
          "indexed": false,
          "internalType": "address",
          "name": "patient",
          "type": "address"
        },
        {
          "indexed": false,
          "internalType": "address",
          "name": "doctor",
          "type": "address"
        }
      ],
      "name": "AccessRevoked",
      "type": "event"
    },
    {
      "anonymous": false,
      "inputs": [
        {
          "indexed": false,
          "internalType": "address",
          "name": "admin",
          "type": "address"
        },
        {
          "indexed": false,
          "internalType": "address",
          "name": "patient",
          "type": "address"
        }
      ],
      "name": "AddedPatient",
      "type": "event"
    },
    {
      "anonymous": false,
      "inputs": [
        {
          "indexed": false,
          "internalType": "address",
          "name": "admin",
          "type": "address"
        },
        {
          "indexed": false,
          "internalType": "address",
          "name": "provider",
          "type": "address"
        }
      ],
      "name": "AddedProvider",
      "type": "event"
    },
    {
      "anonymous": false,
      "inputs": [
        {
          "indexed": false,
          "internalType": "address",
          "name": "patient",
          "type": "address"
        }
      ],
      "name": "CreateEHR",
      "type": "event"
    },
    {
      "anonymous": false,
      "inputs": [
        {
          "indexed": false,
          "internalType": "address",
          "name": "admin",
          "type": "address"
        },
        {
          "indexed": false,
          "internalType": "address",
          "name": "user",
          "type": "address"
        }
      ],
      "name": "DeleteUser",
      "type": "event"
    },
    {
      "anonymous": false,
      "inputs": [
        {
          "indexed": true,
          "internalType": "address",
          "name": "previousOwner",
          "type": "address"
        },
        {
          "indexed": true,
          "internalType": "address",
          "name": "newOwner",
          "type": "address"
        }
      ],
      "name": "OwnershipTransferred",
      "type": "event"
    },
    {
      "anonymous": false,
      "inputs": [
        {
          "indexed": false,
          "internalType": "address",
          "name": "patient",
          "type": "address"
        },
        {
          "indexed": false,
          "internalType": "address",
          "name": "serviceProvider",
          "type": "address"
        },
        {
          "indexed": false,
          "internalType": "bytes32",
          "name": "EHRhash",
          "type": "bytes32"
        }
      ],
      "name": "UpdatedEHR",
      "type": "event"
    },
    {
      "inputs": [
        {
          "internalType": "address",
          "name": "_passedAddress",
          "type": "address"
        }
      ],
      "name": "_retrieveRecords",
      "outputs": [
        {
          "internalType": "uint16[]",
          "name": "_accessKeys",
          "type": "uint16[]"
        },
        {
          "internalType": "bytes32[]",
          "name": "_encryptHash",
          "type": "bytes32[]"
        },
        {
          "internalType": "bytes32[]",
          "name": "_encryptFileHash",
          "type": "bytes32[]"
        },
        {
          "internalType": "address[]",
          "name": "_issuers",
          "type": "address[]"
        },
        {
          "internalType": "uint256[]",
          "name": "_dates",
          "type": "uint256[]"
        }
      ],
      "stateMutability": "view",
      "type": "function"
    },
    {
      "inputs": [
        {
          "internalType": "address",
          "name": "_adminAddress",
          "type": "address"
        }
      ],
      "name": "addAdmin",
      "outputs": [],
      "stateMutability": "nonpayable",
      "type": "function"
    },
    {
      "inputs": [
        {
          "internalType": "address",
          "name": "_doctorAddress",
          "type": "address"
        },
        {
          "internalType": "string",
          "name": "_name",
          "type": "string"
        }
      ],
      "name": "addDoctor",
      "outputs": [],
      "stateMutability": "nonpayable",
      "type": "function"
    },
    {
      "inputs": [
        {
          "internalType": "address",
          "name": "_patientAddress",
          "type": "address"
        },
        {
          "internalType": "string",
          "name": "_name",
          "type": "string"
        }
      ],
      "name": "addPatient",
      "outputs": [],
      "stateMutability": "nonpayable",
      "type": "function"
    },
    {
      "inputs": [
        {
          "internalType": "bytes32",
          "name": "EHRhash",
          "type": "bytes32"
        }
      ],
      "name": "createDefaultEHR",
      "outputs": [],
      "stateMutability": "nonpayable",
      "type": "function"
    },
    {
      "inputs": [
        {
          "internalType": "address",
          "name": "_userAddress",
          "type": "address"
        }
      ],
      "name": "deleteAccount",
      "outputs": [],
      "stateMutability": "nonpayable",
      "type": "function"
    },
    {
      "inputs": [],
      "name": "getAuthDoctors",
      "outputs": [
        {
          "internalType": "address[]",
          "name": "",
          "type": "address[]"
        }
      ],
      "stateMutability": "view",
      "type": "function"
    },
    {
      "inputs": [],
      "name": "getAuthPatients",
      "outputs": [
        {
          "internalType": "address[]",
          "name": "",
          "type": "address[]"
        }
      ],
      "stateMutability": "view",
      "type": "function"
    },
    {
      "inputs": [
        {
          "internalType": "address",
          "name": "_providerAddress",
          "type": "address"
        }
      ],
      "name": "getDoctorInfo",
      "outputs": [
        {
          "internalType": "address",
          "name": "_address",
          "type": "address"
        },
        {
          "internalType": "string",
          "name": "name",
          "type": "string"
        },
        {
          "internalType": "uint256",
          "name": "date",
          "type": "uint256"
        }
      ],
      "stateMutability": "view",
      "type": "function"
    },
    {
      "inputs": [],
      "name": "getDoctorList",
      "outputs": [
        {
          "internalType": "address[]",
          "name": "",
          "type": "address[]"
        }
      ],
      "stateMutability": "view",
      "type": "function"
    },
    {
      "inputs": [],
      "name": "getNetwork",
      "outputs": [
        {
          "internalType": "address[]",
          "name": "",
          "type": "address[]"
        }
      ],
      "stateMutability": "view",
      "type": "function"
    },
    {
      "inputs": [],
      "name": "getOwnRecords",
      "outputs": [
        {
          "internalType": "uint16[]",
          "name": "_accessKeys",
          "type": "uint16[]"
        },
        {
          "internalType": "bytes32[]",
          "name": "_encryptHash",
          "type": "bytes32[]"
        },
        {
          "internalType": "bytes32[]",
          "name": "_encryptFileHash",
          "type": "bytes32[]"
        },
        {
          "internalType": "address[]",
          "name": "_issuers",
          "type": "address[]"
        },
        {
          "internalType": "uint256[]",
          "name": "_dates",
          "type": "uint256[]"
        }
      ],
      "stateMutability": "view",
      "type": "function"
    },
    {
      "inputs": [
        {
          "internalType": "address",
          "name": "_patientAddress",
          "type": "address"
        }
      ],
      "name": "getPatientDisplayInfo",
      "outputs": [
        {
          "internalType": "uint8",
          "name": "exist",
          "type": "uint8"
        },
        {
          "internalType": "string",
          "name": "name",
          "type": "string"
        },
        {
          "internalType": "address",
          "name": "addr",
          "type": "address"
        },
        {
          "internalType": "uint256",
          "name": "date",
          "type": "uint256"
        }
      ],
      "stateMutability": "view",
      "type": "function"
    },
    {
      "inputs": [],
      "name": "getPatientList",
      "outputs": [
        {
          "internalType": "address[]",
          "name": "",
          "type": "address[]"
        }
      ],
      "stateMutability": "view",
      "type": "function"
    },
    {
      "inputs": [
        {
          "internalType": "address",
          "name": "_patientAddress",
          "type": "address"
        },
        {
          "internalType": "address",
          "name": "_serviceProvider",
          "type": "address"
        }
      ],
      "name": "getPermissions",
      "outputs": [
        {
          "internalType": "uint8",
          "name": "read",
          "type": "uint8"
        },
        {
          "internalType": "uint8",
          "name": "write",
          "type": "uint8"
        }
      ],
      "stateMutability": "view",
      "type": "function"
    },
    {
      "inputs": [
        {
          "internalType": "address",
          "name": "_patientAddress",
          "type": "address"
        },
        {
          "internalType": "uint256",
          "name": "idx",
          "type": "uint256"
        }
      ],
      "name": "getRecordIdx",
      "outputs": [
        {
          "internalType": "uint16",
          "name": "accessKey",
          "type": "uint16"
        },
        {
          "internalType": "bytes32",
          "name": "encryptHash",
          "type": "bytes32"
        },
        {
          "internalType": "bytes32",
          "name": "encryptFileHash",
          "type": "bytes32"
        },
        {
          "internalType": "address",
          "name": "issuer",
          "type": "address"
        },
        {
          "internalType": "uint256",
          "name": "date",
          "type": "uint256"
        }
      ],
      "stateMutability": "view",
      "type": "function"
    },
    {
      "inputs": [
        {
          "internalType": "address",
          "name": "_patientAddress",
          "type": "address"
        }
      ],
      "name": "getRecords",
      "outputs": [
        {
          "internalType": "uint16[]",
          "name": "_accessKeys",
          "type": "uint16[]"
        },
        {
          "internalType": "bytes32[]",
          "name": "_encryptHash",
          "type": "bytes32[]"
        },
        {
          "internalType": "bytes32[]",
          "name": "_encryptFileHash",
          "type": "bytes32[]"
        },
        {
          "internalType": "address[]",
          "name": "_issuers",
          "type": "address[]"
        },
        {
          "internalType": "uint256[]",
          "name": "_dates",
          "type": "uint256[]"
        }
      ],
      "stateMutability": "view",
      "type": "function"
    },
    {
      "inputs": [
        {
          "internalType": "address",
          "name": "_userAddress",
          "type": "address"
        }
      ],
      "name": "getRole",
      "outputs": [
        {
          "internalType": "enum IMedicalBlock.Role",
          "name": "",
          "type": "uint8"
        }
      ],
      "stateMutability": "view",
      "type": "function"
    },
    {
      "inputs": [
        {
          "internalType": "address",
          "name": "_doctorAddress",
          "type": "address"
        }
      ],
      "name": "grantAccess",
      "outputs": [],
      "stateMutability": "nonpayable",
      "type": "function"
    },
    {
      "inputs": [
        {
          "internalType": "address",
          "name": "_patientAddress",
          "type": "address"
        },
        {
          "internalType": "address",
          "name": "_doctorAddress",
          "type": "address"
        }
      ],
      "name": "grantAccessDocToDoc",
      "outputs": [],
      "stateMutability": "nonpayable",
      "type": "function"
    },
    {
      "inputs": [],
      "name": "owner",
      "outputs": [
        {
          "internalType": "address",
          "name": "",
          "type": "address"
        }
      ],
      "stateMutability": "view",
      "type": "function"
    },
    {
      "inputs": [],
      "name": "renounceOwnership",
      "outputs": [],
      "stateMutability": "nonpayable",
      "type": "function"
    },
    {
      "inputs": [
        {
          "internalType": "address",
          "name": "_doctorAddress",
          "type": "address"
        }
      ],
      "name": "revokeAccess",
      "outputs": [],
      "stateMutability": "nonpayable",
      "type": "function"
    },
    {
      "inputs": [
        {
          "internalType": "address",
          "name": "_address",
          "type": "address"
        }
      ],
      "name": "seeAdminExists",
      "outputs": [
        {
          "internalType": "bool",
          "name": "exists",
          "type": "bool"
        }
      ],
      "stateMutability": "view",
      "type": "function"
    },
    {
      "inputs": [
        {
          "internalType": "address",
          "name": "_address",
          "type": "address"
        }
      ],
      "name": "seeDoctorExists",
      "outputs": [
        {
          "internalType": "bool",
          "name": "exists",
          "type": "bool"
        }
      ],
      "stateMutability": "view",
      "type": "function"
    },
    {
      "inputs": [
        {
          "internalType": "address",
          "name": "_address",
          "type": "address"
        }
      ],
      "name": "seePatientExists",
      "outputs": [
        {
          "internalType": "bool",
          "name": "exists",
          "type": "bool"
        }
      ],
      "stateMutability": "view",
      "type": "function"
    },
    {
      "inputs": [
        {
          "internalType": "address",
          "name": "newOwner",
          "type": "address"
        }
      ],
      "name": "transferOwnership",
      "outputs": [],
      "stateMutability": "nonpayable",
      "type": "function"
    },
    {
      "inputs": [
        {
          "internalType": "address",
          "name": "_patientAddress",
          "type": "address"
        },
        {
          "internalType": "bytes32",
          "name": "EHRhash",
          "type": "bytes32"
        },
        {
          "internalType": "bytes32",
          "name": "Filehash",
          "type": "bytes32"
        }
      ],
      "name": "updateEHR",
      "outputs": [],
      "stateMutability": "nonpayable",
      "type": "function"
    }
  ],
  "bytecode": "0x60806040523480156200001157600080fd5b5062000032620000266200003860201b60201c565b6200004060201b60201c565b62000104565b600033905090565b60008060009054906101000a900473ffffffffffffffffffffffffffffffffffffffff169050816000806101000a81548173ffffffffffffffffffffffffffffffffffffffff021916908373ffffffffffffffffffffffffffffffffffffffff1602179055508173ffffffffffffffffffffffffffffffffffffffff168173ffffffffffffffffffffffffffffffffffffffff167f8be0079c531659141344cd1fd0a4f28419497f9722a3daafe3b4186f6b6457e060405160405180910390a35050565b615fda80620001146000396000f3fe608060405234801561001057600080fd5b50600436106101c45760003560e01c806368da81d3116100f9578063a0076e8411610097578063c068d1c511610071578063c068d1c514610529578063db66c06014610547578063e5186c4514610563578063f2fde38b14610597576101c4565b8063a0076e84146104a4578063a5bc9118146104d8578063a71aefc91461050b576101c4565b8063715018a6116100d3578063715018a6146104445780637cf1e4451461044e57806385e685311461046a5780638da5cb5b14610486576101c4565b806368da81d3146103c65780636f12fc35146103f65780637048027514610428576101c4565b80634757d3bb116101665780634c1b64cb116101405780634c1b64cb1461033a578063503b13541461035657806357444b99146103745780636894d65314610396576101c4565b80634757d3bb146102cf57806347eac0671461030057806347eec3071461031c576101c4565b8063221e6e06116101a2578063221e6e061461021f5780633a6f29411461023b578063442767331461026b5780634566c3691461029b576101c4565b806307e4b7e9146101c957806309c571b7146101e75780630ae5e73914610203575b600080fd5b6101d16105b3565b6040516101de9190615799565b60405180910390f35b61020160048036038101906101fc9190614e7c565b610681565b005b61021d60048036038101906102189190614e17565b610aa3565b005b61023960048036038101906102349190614e40565b6110f9565b005b61025560048036038101906102509190614e17565b6116ed565b6040516102629190615831565b60405180910390f35b61028560048036038101906102809190614e17565b611743565b604051610292919061584c565b60405180910390f35b6102b560048036038101906102b09190614e17565b6118b6565b6040516102c69594939291906157bb565b60405180910390f35b6102e960048036038101906102e49190614e40565b611d5b565b6040516102f7929190615b46565b60405180910390f35b61031a60048036038101906103159190614f5b565b611e83565b005b6103246120d5565b6040516103319190615799565b60405180910390f35b610354600480360381019061034f9190614e17565b612238565b005b61035e61274a565b60405161036b9190615799565b60405180910390f35b61037c6127d8565b60405161038d9594939291906157bb565b60405180910390f35b6103b060048036038101906103ab9190614e17565b612917565b6040516103bd9190615831565b60405180910390f35b6103e060048036038101906103db9190614e17565b612976565b6040516103ed9190615831565b60405180910390f35b610410600480360381019061040b9190614e17565b6129d5565b60405161041f9392919061575b565b60405180910390f35b610442600480360381019061043d9190614e17565b612b5c565b005b61044c612cc0565b005b61046860048036038101906104639190614ecb565b612d48565b005b610484600480360381019061047f9190614e17565b6131ea565b005b61048e61365c565b60405161049b91906156e0565b60405180910390f35b6104be60048036038101906104b99190614e17565b613685565b6040516104cf9594939291906157bb565b60405180910390f35b6104f260048036038101906104ed9190614e17565b613897565b6040516105029493929190615afa565b60405180910390f35b610513613c3e565b6040516105209190615799565b60405180910390f35b610531613ccc565b60405161053e9190615799565b60405180910390f35b610561600480360381019061055c9190614ecb565b613e2f565b005b61057d60048036038101906105789190614f1f565b614392565b60405161058e959493929190615aa7565b60405180910390f35b6105b160048036038101906105ac9190614e17565b614698565b005b6060600760003373ffffffffffffffffffffffffffffffffffffffff1673ffffffffffffffffffffffffffffffffffffffff16815260200190815260200160002060000180548060200260200160405190810160405280929190818152602001828054801561067757602002820191906000526020600020905b8160009054906101000a900473ffffffffffffffffffffffffffffffffffffffff1673ffffffffffffffffffffffffffffffffffffffff168152602001906001019080831161062d575b5050505050905090565b6001600260003373ffffffffffffffffffffffffffffffffffffffff1673ffffffffffffffffffffffffffffffffffffffff16815260200190815260200160002060000160009054906101000a900460ff1660ff1614610716576040517f08c379a000000000000000000000000000000000000000000000000000000000815260040161070d90615927565b60405180910390fd5b61071f83612976565b61075e576040517f08c379a000000000000000000000000000000000000000000000000000000000815260040161075590615947565b60405180910390fd5b60018060008573ffffffffffffffffffffffffffffffffffffffff1673ffffffffffffffffffffffffffffffffffffffff16815260200190815260200160002060003373ffffffffffffffffffffffffffffffffffffffff1673ffffffffffffffffffffffffffffffffffffffff16815260200190815260200160002060000160029054906101000a900460ff1660ff161461082f576040517f08c379a000000000000000000000000000000000000000000000000000000000815260040161082690615907565b60405180910390fd5b6000600360008573ffffffffffffffffffffffffffffffffffffffff1673ffffffffffffffffffffffffffffffffffffffff1681526020019081526020016000206003016001600360008773ffffffffffffffffffffffffffffffffffffffff1673ffffffffffffffffffffffffffffffffffffffff168152602001908152602001600020600301805490506108c59190615cd0565b815481106108fc577f4e487b7100000000000000000000000000000000000000000000000000000000600052603260045260246000fd5b906000526020600020906005020160000160009054906101000a900461ffff169050808061092990615e0a565b915050600360008573ffffffffffffffffffffffffffffffffffffffff1673ffffffffffffffffffffffffffffffffffffffff1681526020019081526020016000206003016040518060a001604052808361ffff1681526020018581526020018481526020013373ffffffffffffffffffffffffffffffffffffffff16815260200142815250908060018154018082558091505060019003906000526020600020906005020160009091909190915060008201518160000160006101000a81548161ffff021916908361ffff160217905550602082015181600101556040820151816002015560608201518160030160006101000a81548173ffffffffffffffffffffffffffffffffffffffff021916908373ffffffffffffffffffffffffffffffffffffffff1602179055506080820151816004015550507fc24e79725845725a4e07c0b148e2a1866b23297ea77702918ec83214b6cfbfa0843385604051610a9593929190615724565b60405180910390a150505050565b6001600360003373ffffffffffffffffffffffffffffffffffffffff1673ffffffffffffffffffffffffffffffffffffffff16815260200190815260200160002060000160009054906101000a900460ff1660ff1614610b38576040517f08c379a0000000000000000000000000000000000000000000000000000000008152600401610b2f90615947565b60405180910390fd5b6000600160003373ffffffffffffffffffffffffffffffffffffffff1673ffffffffffffffffffffffffffffffffffffffff16815260200190815260200160002060008373ffffffffffffffffffffffffffffffffffffffff1673ffffffffffffffffffffffffffffffffffffffff16815260200190815260200160002060000160009054906101000a900460ff1660ff16148015610c6657506000600160003373ffffffffffffffffffffffffffffffffffffffff1673ffffffffffffffffffffffffffffffffffffffff16815260200190815260200160002060008373ffffffffffffffffffffffffffffffffffffffff1673ffffffffffffffffffffffffffffffffffffffff16815260200190815260200160002060000160019054906101000a900460ff1660ff16145b8015610d0157506000600160003373ffffffffffffffffffffffffffffffffffffffff1673ffffffffffffffffffffffffffffffffffffffff16815260200190815260200160002060008373ffffffffffffffffffffffffffffffffffffffff1673ffffffffffffffffffffffffffffffffffffffff16815260200190815260200160002060000160029054906101000a900460ff1660ff16145b610d40576040517f08c379a0000000000000000000000000000000000000000000000000000000008152600401610d37906158c7565b60405180910390fd5b8073ffffffffffffffffffffffffffffffffffffffff163373ffffffffffffffffffffffffffffffffffffffff161415610daf576040517f08c379a0000000000000000000000000000000000000000000000000000000008152600401610da6906158e7565b60405180910390fd5b60018060003373ffffffffffffffffffffffffffffffffffffffff1673ffffffffffffffffffffffffffffffffffffffff16815260200190815260200160002060008373ffffffffffffffffffffffffffffffffffffffff1673ffffffffffffffffffffffffffffffffffffffff16815260200190815260200160002060000160006101000a81548160ff021916908360ff16021790555060018060003373ffffffffffffffffffffffffffffffffffffffff1673ffffffffffffffffffffffffffffffffffffffff16815260200190815260200160002060008373ffffffffffffffffffffffffffffffffffffffff1673ffffffffffffffffffffffffffffffffffffffff16815260200190815260200160002060000160016101000a81548160ff021916908360ff16021790555060018060003373ffffffffffffffffffffffffffffffffffffffff1673ffffffffffffffffffffffffffffffffffffffff16815260200190815260200160002060008373ffffffffffffffffffffffffffffffffffffffff1673ffffffffffffffffffffffffffffffffffffffff16815260200190815260200160002060000160026101000a81548160ff021916908360ff1602179055507f9f520b3bfc56d06f7065d10b4683b3f57ac8895d5026cd176dee95ce1454cb8d3382604051610fa89291906156fb565b60405180910390a1600360003373ffffffffffffffffffffffffffffffffffffffff1673ffffffffffffffffffffffffffffffffffffffff168152602001908152602001600020600601819080600181540180825580915050600190039060005260206000200160009091909190916101000a81548173ffffffffffffffffffffffffffffffffffffffff021916908373ffffffffffffffffffffffffffffffffffffffff160217905550600260008273ffffffffffffffffffffffffffffffffffffffff1673ffffffffffffffffffffffffffffffffffffffff168152602001908152602001600020600501339080600181540180825580915050600190039060005260206000200160009091909190916101000a81548173ffffffffffffffffffffffffffffffffffffffff021916908373ffffffffffffffffffffffffffffffffffffffff16021790555050565b6001600260003373ffffffffffffffffffffffffffffffffffffffff1673ffffffffffffffffffffffffffffffffffffffff16815260200190815260200160002060000160009054906101000a900460ff1660ff161461118e576040517f08c379a000000000000000000000000000000000000000000000000000000000815260040161118590615927565b60405180910390fd5b6000600160008473ffffffffffffffffffffffffffffffffffffffff1673ffffffffffffffffffffffffffffffffffffffff16815260200190815260200160002060008373ffffffffffffffffffffffffffffffffffffffff1673ffffffffffffffffffffffffffffffffffffffff16815260200190815260200160002060000160009054906101000a900460ff1660ff1614611260576040517f08c379a000000000000000000000000000000000000000000000000000000000815260040161125790615887565b60405180910390fd5b6000600160003373ffffffffffffffffffffffffffffffffffffffff1673ffffffffffffffffffffffffffffffffffffffff16815260200190815260200160002060008373ffffffffffffffffffffffffffffffffffffffff1673ffffffffffffffffffffffffffffffffffffffff16815260200190815260200160002060000160009054906101000a900460ff1660ff1614611332576040517f08c379a0000000000000000000000000000000000000000000000000000000008152600401611329906158c7565b60405180910390fd5b8073ffffffffffffffffffffffffffffffffffffffff163373ffffffffffffffffffffffffffffffffffffffff1614156113a1576040517f08c379a0000000000000000000000000000000000000000000000000000000008152600401611398906158e7565b60405180910390fd5b60018060008473ffffffffffffffffffffffffffffffffffffffff1673ffffffffffffffffffffffffffffffffffffffff16815260200190815260200160002060008373ffffffffffffffffffffffffffffffffffffffff1673ffffffffffffffffffffffffffffffffffffffff16815260200190815260200160002060000160006101000a81548160ff021916908360ff16021790555060018060008473ffffffffffffffffffffffffffffffffffffffff1673ffffffffffffffffffffffffffffffffffffffff16815260200190815260200160002060008373ffffffffffffffffffffffffffffffffffffffff1673ffffffffffffffffffffffffffffffffffffffff16815260200190815260200160002060000160016101000a81548160ff021916908360ff1602179055506000600160008473ffffffffffffffffffffffffffffffffffffffff1673ffffffffffffffffffffffffffffffffffffffff16815260200190815260200160002060008373ffffffffffffffffffffffffffffffffffffffff1673ffffffffffffffffffffffffffffffffffffffff16815260200190815260200160002060000160026101000a81548160ff021916908360ff1602179055507f9f520b3bfc56d06f7065d10b4683b3f57ac8895d5026cd176dee95ce1454cb8d338260405161159b9291906156fb565b60405180910390a1600360008373ffffffffffffffffffffffffffffffffffffffff1673ffffffffffffffffffffffffffffffffffffffff168152602001908152602001600020600601819080600181540180825580915050600190039060005260206000200160009091909190916101000a81548173ffffffffffffffffffffffffffffffffffffffff021916908373ffffffffffffffffffffffffffffffffffffffff160217905550600260008273ffffffffffffffffffffffffffffffffffffffff1673ffffffffffffffffffffffffffffffffffffffff168152602001908152602001600020600501829080600181540180825580915050600190039060005260206000200160009091909190916101000a81548173ffffffffffffffffffffffffffffffffffffffff021916908373ffffffffffffffffffffffffffffffffffffffff1602179055505050565b6000600660008373ffffffffffffffffffffffffffffffffffffffff1673ffffffffffffffffffffffffffffffffffffffff16815260200190815260200160002060009054906101000a900460ff169050919050565b60008173ffffffffffffffffffffffffffffffffffffffff1661176461365c565b73ffffffffffffffffffffffffffffffffffffffff16141561178957600090506118b1565b600660008373ffffffffffffffffffffffffffffffffffffffff1673ffffffffffffffffffffffffffffffffffffffff16815260200190815260200160002060009054906101000a900460ff16156117e457600190506118b1565b6001600260008473ffffffffffffffffffffffffffffffffffffffff1673ffffffffffffffffffffffffffffffffffffffff16815260200190815260200160002060000160009054906101000a900460ff1660ff16141561184857600290506118b1565b6001600360008473ffffffffffffffffffffffffffffffffffffffff1673ffffffffffffffffffffffffffffffffffffffff16815260200190815260200160002060000160009054906101000a900460ff1660ff1614156118ac57600390506118b1565b600490505b919050565b606080606080606060008073ffffffffffffffffffffffffffffffffffffffff168773ffffffffffffffffffffffffffffffffffffffff16146118f957866118fb565b335b90506000600360008373ffffffffffffffffffffffffffffffffffffffff1673ffffffffffffffffffffffffffffffffffffffff16815260200190815260200160002060030180549050905060008167ffffffffffffffff811115611989577f4e487b7100000000000000000000000000000000000000000000000000000000600052604160045260246000fd5b6040519080825280602002602001820160405280156119b75781602001602082028036833780820191505090505b50905060008267ffffffffffffffff8111156119fc577f4e487b7100000000000000000000000000000000000000000000000000000000600052604160045260246000fd5b604051908082528060200260200182016040528015611a2a5781602001602082028036833780820191505090505b50905060008367ffffffffffffffff811115611a6f577f4e487b7100000000000000000000000000000000000000000000000000000000600052604160045260246000fd5b604051908082528060200260200182016040528015611a9d5781602001602082028036833780820191505090505b50905060008467ffffffffffffffff811115611ae2577f4e487b7100000000000000000000000000000000000000000000000000000000600052604160045260246000fd5b604051908082528060200260200182016040528015611b105781602001602082028036833780820191505090505b50905060008567ffffffffffffffff811115611b55577f4e487b7100000000000000000000000000000000000000000000000000000000600052604160045260246000fd5b604051908082528060200260200182016040528015611b835781602001602082028036833780820191505090505b50905060005b86811015611d3b57611b9b8882614392565b8a8681518110611bd4577f4e487b7100000000000000000000000000000000000000000000000000000000600052603260045260246000fd5b602002602001018a8781518110611c14577f4e487b7100000000000000000000000000000000000000000000000000000000600052603260045260246000fd5b602002602001018a8881518110611c54577f4e487b7100000000000000000000000000000000000000000000000000000000600052603260045260246000fd5b602002602001018a8981518110611c94577f4e487b7100000000000000000000000000000000000000000000000000000000600052603260045260246000fd5b602002602001018a8a81518110611cd4577f4e487b7100000000000000000000000000000000000000000000000000000000600052603260045260246000fd5b60200260200101858152508573ffffffffffffffffffffffffffffffffffffffff1673ffffffffffffffffffffffffffffffffffffffff1681525085815250858152508561ffff1661ffff1681525050505050508080611d3390615e35565b915050611b89565b5084848484849b509b509b509b509b505050505050505091939590929450565b600080600160008573ffffffffffffffffffffffffffffffffffffffff1673ffffffffffffffffffffffffffffffffffffffff16815260200190815260200160002060008473ffffffffffffffffffffffffffffffffffffffff1673ffffffffffffffffffffffffffffffffffffffff16815260200190815260200160002060000160019054906101000a900460ff16600160008673ffffffffffffffffffffffffffffffffffffffff1673ffffffffffffffffffffffffffffffffffffffff16815260200190815260200160002060008573ffffffffffffffffffffffffffffffffffffffff1673ffffffffffffffffffffffffffffffffffffffff16815260200190815260200160002060000160029054906101000a900460ff16915091509250929050565b6001600360003373ffffffffffffffffffffffffffffffffffffffff1673ffffffffffffffffffffffffffffffffffffffff16815260200190815260200160002060000160009054906101000a900460ff1660ff1614611f18576040517f08c379a0000000000000000000000000000000000000000000000000000000008152600401611f0f90615947565b60405180910390fd5b611f2133612976565b611f60576040517f08c379a0000000000000000000000000000000000000000000000000000000008152600401611f5790615947565b60405180910390fd5b600360003373ffffffffffffffffffffffffffffffffffffffff1673ffffffffffffffffffffffffffffffffffffffff1681526020019081526020016000206003016040518060a00160405280600161ffff168152602001838152602001600080191681526020013373ffffffffffffffffffffffffffffffffffffffff16815260200142815250908060018154018082558091505060019003906000526020600020906005020160009091909190915060008201518160000160006101000a81548161ffff021916908361ffff160217905550602082015181600101556040820151816002015560608201518160030160006101000a81548173ffffffffffffffffffffffffffffffffffffffff021916908373ffffffffffffffffffffffffffffffffffffffff1602179055506080820151816004015550507f4226edf06d7586d3156506407b6478715b1e68c92f3b5acc6bf7a03dcacff9a7336040516120ca91906156e0565b60405180910390a150565b60606001600260003373ffffffffffffffffffffffffffffffffffffffff1673ffffffffffffffffffffffffffffffffffffffff16815260200190815260200160002060000160009054906101000a900460ff1660ff161461216c576040517f08c379a000000000000000000000000000000000000000000000000000000000815260040161216390615927565b60405180910390fd5b600260003373ffffffffffffffffffffffffffffffffffffffff1673ffffffffffffffffffffffffffffffffffffffff16815260200190815260200160002060050180548060200260200160405190810160405280929190818152602001828054801561222e57602002820191906000526020600020905b8160009054906101000a900473ffffffffffffffffffffffffffffffffffffffff1673ffffffffffffffffffffffffffffffffffffffff16815260200190600101908083116121e4575b5050505050905090565b600660003373ffffffffffffffffffffffffffffffffffffffff1673ffffffffffffffffffffffffffffffffffffffff16815260200190815260200160002060009054906101000a900460ff16806122c257503373ffffffffffffffffffffffffffffffffffffffff166122aa61365c565b73ffffffffffffffffffffffffffffffffffffffff16145b612301576040517f08c379a00000000000000000000000000000000000000000000000000000000081526004016122f890615987565b60405180910390fd5b6001600360008373ffffffffffffffffffffffffffffffffffffffff1673ffffffffffffffffffffffffffffffffffffffff16815260200190815260200160002060000160009054906101000a900460ff1660ff1614806123b457506001600260008373ffffffffffffffffffffffffffffffffffffffff1673ffffffffffffffffffffffffffffffffffffffff16815260200190815260200160002060000160009054906101000a900460ff1660ff16145b6123f3576040517f08c379a00000000000000000000000000000000000000000000000000000000081526004016123ea906159e7565b60405180910390fd5b61243e600760003373ffffffffffffffffffffffffffffffffffffffff1673ffffffffffffffffffffffffffffffffffffffff16815260200190815260200160002060000182614790565b60026004811115612478577f4e487b7100000000000000000000000000000000000000000000000000000000600052602160045260246000fd5b61248182611743565b60048111156124b9577f4e487b7100000000000000000000000000000000000000000000000000000000600052602160045260246000fd5b141561259b576124ca600582614790565b600260008273ffffffffffffffffffffffffffffffffffffffff1673ffffffffffffffffffffffffffffffffffffffff168152602001908152602001600020600080820160006101000a81549060ff021916905560018201600061252e9190614b53565b6002820160006101000a81549073ffffffffffffffffffffffffffffffffffffffff02191690556003820160006101000a81549073ffffffffffffffffffffffffffffffffffffffff021916905560048201600090556005820160006125949190614b93565b505061270e565b600360048111156125d5577f4e487b7100000000000000000000000000000000000000000000000000000000600052602160045260246000fd5b6125de82611743565b6004811115612616577f4e487b7100000000000000000000000000000000000000000000000000000000600052602160045260246000fd5b141561270857612627600482614790565b600360008273ffffffffffffffffffffffffffffffffffffffff1673ffffffffffffffffffffffffffffffffffffffff168152602001908152602001600020600080820160006101000a81549060ff021916905560018201600061268b9190614b53565b6002820160006101000a81549073ffffffffffffffffffffffffffffffffffffffff02191690556003820160006126c29190614bb4565b6004820160006101000a81549073ffffffffffffffffffffffffffffffffffffffff021916905560058201600090556006820160006127019190614b93565b505061270d565b600080fd5b5b7f8232e09e17a730dda9674b1995113024ef90277b40c26da33266b8e34eb0ad81338260405161273f9291906156fb565b60405180910390a150565b606060048054806020026020016040519081016040528092919081815260200182805480156127ce57602002820191906000526020600020905b8160009054906101000a900473ffffffffffffffffffffffffffffffffffffffff1673ffffffffffffffffffffffffffffffffffffffff1681526020019060010190808311612784575b5050505050905090565b60608060608060606001600360003373ffffffffffffffffffffffffffffffffffffffff1673ffffffffffffffffffffffffffffffffffffffff16815260200190815260200160002060000160009054906101000a900460ff1660ff1614612875576040517f08c379a000000000000000000000000000000000000000000000000000000000815260040161286c90615947565b60405180910390fd5b6000600360003373ffffffffffffffffffffffffffffffffffffffff1673ffffffffffffffffffffffffffffffffffffffff16815260200190815260200160002060030180549050116128fd576040517f08c379a00000000000000000000000000000000000000000000000000000000081526004016128f490615867565b60405180910390fd5b612906336118b6565b945094509450945094509091929394565b60006001600260008473ffffffffffffffffffffffffffffffffffffffff1673ffffffffffffffffffffffffffffffffffffffff16815260200190815260200160002060000160009054906101000a900460ff1660ff16149050919050565b60006001600360008473ffffffffffffffffffffffffffffffffffffffff1673ffffffffffffffffffffffffffffffffffffffff16815260200190815260200160002060000160009054906101000a900460ff1660ff16149050919050565b600060606000600260008573ffffffffffffffffffffffffffffffffffffffff1673ffffffffffffffffffffffffffffffffffffffff16815260200190815260200160002060020160009054906101000a900473ffffffffffffffffffffffffffffffffffffffff16600260008673ffffffffffffffffffffffffffffffffffffffff1673ffffffffffffffffffffffffffffffffffffffff168152602001908152602001600020600101600260008773ffffffffffffffffffffffffffffffffffffffff1673ffffffffffffffffffffffffffffffffffffffff16815260200190815260200160002060040154818054612acf90615dd8565b80601f0160208091040260200160405190810160405280929190818152602001828054612afb90615dd8565b8015612b485780601f10612b1d57610100808354040283529160200191612b48565b820191906000526020600020905b815481529060010190602001808311612b2b57829003601f168201915b505050505091509250925092509193909250565b612b64614a87565b73ffffffffffffffffffffffffffffffffffffffff16612b8261365c565b73ffffffffffffffffffffffffffffffffffffffff1614612bd8576040517f08c379a0000000000000000000000000000000000000000000000000000000008152600401612bcf90615967565b60405180910390fd5b600660008273ffffffffffffffffffffffffffffffffffffffff1673ffffffffffffffffffffffffffffffffffffffff16815260200190815260200160002060009054906101000a900460ff1615612c65576040517f08c379a0000000000000000000000000000000000000000000000000000000008152600401612c5c906159a7565b60405180910390fd5b6001600660008373ffffffffffffffffffffffffffffffffffffffff1673ffffffffffffffffffffffffffffffffffffffff16815260200190815260200160002060006101000a81548160ff02191690831515021790555050565b612cc8614a87565b73ffffffffffffffffffffffffffffffffffffffff16612ce661365c565b73ffffffffffffffffffffffffffffffffffffffff1614612d3c576040517f08c379a0000000000000000000000000000000000000000000000000000000008152600401612d3390615967565b60405180910390fd5b612d466000614a8f565b565b600660003373ffffffffffffffffffffffffffffffffffffffff1673ffffffffffffffffffffffffffffffffffffffff16815260200190815260200160002060009054906101000a900460ff1680612dd257503373ffffffffffffffffffffffffffffffffffffffff16612dba61365c565b73ffffffffffffffffffffffffffffffffffffffff16145b612e11576040517f08c379a0000000000000000000000000000000000000000000000000000000008152600401612e0890615987565b60405180910390fd5b6000600260008473ffffffffffffffffffffffffffffffffffffffff1673ffffffffffffffffffffffffffffffffffffffff16815260200190815260200160002060000160009054906101000a900460ff1660ff1614612ea6576040517f08c379a0000000000000000000000000000000000000000000000000000000008152600401612e9d90615a27565b60405180910390fd5b6040518060c00160405280600160ff1681526020018281526020018373ffffffffffffffffffffffffffffffffffffffff1681526020013373ffffffffffffffffffffffffffffffffffffffff168152602001428152602001600067ffffffffffffffff811115612f40577f4e487b7100000000000000000000000000000000000000000000000000000000600052604160045260246000fd5b604051908082528060200260200182016040528015612f6e5781602001602082028036833780820191505090505b50815250600260008473ffffffffffffffffffffffffffffffffffffffff1673ffffffffffffffffffffffffffffffffffffffff16815260200190815260200160002060008201518160000160006101000a81548160ff021916908360ff1602179055506020820151816001019080519060200190612fee929190614bd8565b5060408201518160020160006101000a81548173ffffffffffffffffffffffffffffffffffffffff021916908373ffffffffffffffffffffffffffffffffffffffff16021790555060608201518160030160006101000a81548173ffffffffffffffffffffffffffffffffffffffff021916908373ffffffffffffffffffffffffffffffffffffffff1602179055506080820151816004015560a08201518160050190805190602001906130a3929190614c5e565b509050507f0a2403c9b7f8705c838850b75ef6ddc39f142c13249e85479aca0cbe6e4a873933836040516130d89291906156fb565b60405180910390a1600760003373ffffffffffffffffffffffffffffffffffffffff1673ffffffffffffffffffffffffffffffffffffffff168152602001908152602001600020600001829080600181540180825580915050600190039060005260206000200160009091909190916101000a81548173ffffffffffffffffffffffffffffffffffffffff021916908373ffffffffffffffffffffffffffffffffffffffff1602179055506005829080600181540180825580915050600190039060005260206000200160009091909190916101000a81548173ffffffffffffffffffffffffffffffffffffffff021916908373ffffffffffffffffffffffffffffffffffffffff1602179055505050565b6001600360003373ffffffffffffffffffffffffffffffffffffffff1673ffffffffffffffffffffffffffffffffffffffff16815260200190815260200160002060000160009054906101000a900460ff1660ff161461327f576040517f08c379a000000000000000000000000000000000000000000000000000000000815260040161327690615947565b60405180910390fd5b60018060003373ffffffffffffffffffffffffffffffffffffffff1673ffffffffffffffffffffffffffffffffffffffff16815260200190815260200160002060008373ffffffffffffffffffffffffffffffffffffffff1673ffffffffffffffffffffffffffffffffffffffff16815260200190815260200160002060000160009054906101000a900460ff1660ff1614613350576040517f08c379a0000000000000000000000000000000000000000000000000000000008152600401613347906159c7565b60405180910390fd5b8073ffffffffffffffffffffffffffffffffffffffff163373ffffffffffffffffffffffffffffffffffffffff1614156133bf576040517f08c379a00000000000000000000000000000000000000000000000000000000081526004016133b690615a07565b60405180910390fd5b6000600160003373ffffffffffffffffffffffffffffffffffffffff1673ffffffffffffffffffffffffffffffffffffffff16815260200190815260200160002060008373ffffffffffffffffffffffffffffffffffffffff1673ffffffffffffffffffffffffffffffffffffffff16815260200190815260200160002060000160006101000a81548160ff021916908360ff1602179055506000600160003373ffffffffffffffffffffffffffffffffffffffff1673ffffffffffffffffffffffffffffffffffffffff16815260200190815260200160002060008373ffffffffffffffffffffffffffffffffffffffff1673ffffffffffffffffffffffffffffffffffffffff16815260200190815260200160002060000160016101000a81548160ff021916908360ff1602179055506000600160003373ffffffffffffffffffffffffffffffffffffffff1673ffffffffffffffffffffffffffffffffffffffff16815260200190815260200160002060008373ffffffffffffffffffffffffffffffffffffffff1673ffffffffffffffffffffffffffffffffffffffff16815260200190815260200160002060000160026101000a81548160ff021916908360ff1602179055507f825c8be24eb0df19500f63e86c29e7d0d951e73056b889b891d85e40938d9b6e33826040516135bb9291906156fb565b60405180910390a161360e600360003373ffffffffffffffffffffffffffffffffffffffff1673ffffffffffffffffffffffffffffffffffffffff16815260200190815260200160002060060182614790565b613659600260008373ffffffffffffffffffffffffffffffffffffffff1673ffffffffffffffffffffffffffffffffffffffff16815260200190815260200160002060050133614790565b50565b60008060009054906101000a900473ffffffffffffffffffffffffffffffffffffffff16905090565b60608060608060606001600260003373ffffffffffffffffffffffffffffffffffffffff1673ffffffffffffffffffffffffffffffffffffffff16815260200190815260200160002060000160009054906101000a900460ff1660ff1614613722576040517f08c379a000000000000000000000000000000000000000000000000000000000815260040161371990615927565b60405180910390fd5b60018060008873ffffffffffffffffffffffffffffffffffffffff1673ffffffffffffffffffffffffffffffffffffffff16815260200190815260200160002060003373ffffffffffffffffffffffffffffffffffffffff1673ffffffffffffffffffffffffffffffffffffffff16815260200190815260200160002060000160019054906101000a900460ff1660ff16146137f3576040517f08c379a00000000000000000000000000000000000000000000000000000000081526004016137ea90615907565b60405180910390fd5b6000600360008873ffffffffffffffffffffffffffffffffffffffff1673ffffffffffffffffffffffffffffffffffffffff168152602001908152602001600020600301805490501161387b576040517f08c379a000000000000000000000000000000000000000000000000000000000815260040161387290615867565b60405180910390fd5b613884866118b6565b9450945094509450945091939590929450565b600060606000806138a785612976565b6138e6576040517f08c379a00000000000000000000000000000000000000000000000000000000081526004016138dd90615a47565b60405180910390fd5b6000600360008773ffffffffffffffffffffffffffffffffffffffff1673ffffffffffffffffffffffffffffffffffffffff1681526020019081526020016000206040518060e00160405290816000820160009054906101000a900460ff1660ff1660ff16815260200160018201805461395f90615dd8565b80601f016020809104026020016040519081016040528092919081815260200182805461398b90615dd8565b80156139d85780601f106139ad576101008083540402835291602001916139d8565b820191906000526020600020905b8154815290600101906020018083116139bb57829003601f168201915b505050505081526020016002820160009054906101000a900473ffffffffffffffffffffffffffffffffffffffff1673ffffffffffffffffffffffffffffffffffffffff1673ffffffffffffffffffffffffffffffffffffffff16815260200160038201805480602002602001604051908101604052809291908181526020016000905b82821015613b2257838290600052602060002090600502016040518060a00160405290816000820160009054906101000a900461ffff1661ffff1661ffff16815260200160018201548152602001600282015481526020016003820160009054906101000a900473ffffffffffffffffffffffffffffffffffffffff1673ffffffffffffffffffffffffffffffffffffffff1673ffffffffffffffffffffffffffffffffffffffff16815260200160048201548152505081526020019060010190613a5c565b5050505081526020016004820160009054906101000a900473ffffffffffffffffffffffffffffffffffffffff1673ffffffffffffffffffffffffffffffffffffffff1673ffffffffffffffffffffffffffffffffffffffff1681526020016005820154815260200160068201805480602002602001604051908101604052809291908181526020018280548015613c0f57602002820191906000526020600020905b8160009054906101000a900473ffffffffffffffffffffffffffffffffffffffff1673ffffffffffffffffffffffffffffffffffffffff1681526020019060010190808311613bc5575b50505050508152505090508060000151816020015182604001518360a001519450945094509450509193509193565b60606005805480602002602001604051908101604052809291908181526020018280548015613cc257602002820191906000526020600020905b8160009054906101000a900473ffffffffffffffffffffffffffffffffffffffff1673ffffffffffffffffffffffffffffffffffffffff1681526020019060010190808311613c78575b5050505050905090565b60606001600360003373ffffffffffffffffffffffffffffffffffffffff1673ffffffffffffffffffffffffffffffffffffffff16815260200190815260200160002060000160009054906101000a900460ff1660ff1614613d63576040517f08c379a0000000000000000000000000000000000000000000000000000000008152600401613d5a90615947565b60405180910390fd5b600360003373ffffffffffffffffffffffffffffffffffffffff1673ffffffffffffffffffffffffffffffffffffffff168152602001908152602001600020600601805480602002602001604051908101604052809291908181526020018280548015613e2557602002820191906000526020600020905b8160009054906101000a900473ffffffffffffffffffffffffffffffffffffffff1673ffffffffffffffffffffffffffffffffffffffff1681526020019060010190808311613ddb575b5050505050905090565b600660003373ffffffffffffffffffffffffffffffffffffffff1673ffffffffffffffffffffffffffffffffffffffff16815260200190815260200160002060009054906101000a900460ff1680613eb957503373ffffffffffffffffffffffffffffffffffffffff16613ea161365c565b73ffffffffffffffffffffffffffffffffffffffff16145b613ef8576040517f08c379a0000000000000000000000000000000000000000000000000000000008152600401613eef90615987565b60405180910390fd5b6000600360008473ffffffffffffffffffffffffffffffffffffffff1673ffffffffffffffffffffffffffffffffffffffff16815260200190815260200160002060000160009054906101000a900460ff1660ff1614613f8d576040517f08c379a0000000000000000000000000000000000000000000000000000000008152600401613f8490615a87565b60405180910390fd5b6001600360008473ffffffffffffffffffffffffffffffffffffffff1673ffffffffffffffffffffffffffffffffffffffff16815260200190815260200160002060000160006101000a81548160ff021916908360ff16021790555080600360008473ffffffffffffffffffffffffffffffffffffffff1673ffffffffffffffffffffffffffffffffffffffff168152602001908152602001600020600101908051906020019061403f929190614bd8565b5081600360008473ffffffffffffffffffffffffffffffffffffffff1673ffffffffffffffffffffffffffffffffffffffff16815260200190815260200160002060020160006101000a81548173ffffffffffffffffffffffffffffffffffffffff021916908373ffffffffffffffffffffffffffffffffffffffff16021790555033600360008473ffffffffffffffffffffffffffffffffffffffff1673ffffffffffffffffffffffffffffffffffffffff16815260200190815260200160002060040160006101000a81548173ffffffffffffffffffffffffffffffffffffffff021916908373ffffffffffffffffffffffffffffffffffffffff16021790555042600360008473ffffffffffffffffffffffffffffffffffffffff1673ffffffffffffffffffffffffffffffffffffffff16815260200190815260200160002060050181905550600067ffffffffffffffff8111156141ca577f4e487b7100000000000000000000000000000000000000000000000000000000600052604160045260246000fd5b6040519080825280602002602001820160405280156141f85781602001602082028036833780820191505090505b50600360008473ffffffffffffffffffffffffffffffffffffffff1673ffffffffffffffffffffffffffffffffffffffff168152602001908152602001600020600601908051906020019061424e929190614c5e565b507fa7463f222f1e2777454362bb6e940c83173a1ff42e331e703b3a1fa9b56038e533836040516142809291906156fb565b60405180910390a1600760003373ffffffffffffffffffffffffffffffffffffffff1673ffffffffffffffffffffffffffffffffffffffff168152602001908152602001600020600001829080600181540180825580915050600190039060005260206000200160009091909190916101000a81548173ffffffffffffffffffffffffffffffffffffffff021916908373ffffffffffffffffffffffffffffffffffffffff1602179055506004829080600181540180825580915050600190039060005260206000200160009091909190916101000a81548173ffffffffffffffffffffffffffffffffffffffff021916908373ffffffffffffffffffffffffffffffffffffffff1602179055505050565b6000806000806000600360008873ffffffffffffffffffffffffffffffffffffffff1673ffffffffffffffffffffffffffffffffffffffff1681526020019081526020016000206003018681548110614414577f4e487b7100000000000000000000000000000000000000000000000000000000600052603260045260246000fd5b906000526020600020906005020160000160009054906101000a900461ffff16600360008973ffffffffffffffffffffffffffffffffffffffff1673ffffffffffffffffffffffffffffffffffffffff16815260200190815260200160002060030187815481106144ae577f4e487b7100000000000000000000000000000000000000000000000000000000600052603260045260246000fd5b906000526020600020906005020160010154600360008a73ffffffffffffffffffffffffffffffffffffffff1673ffffffffffffffffffffffffffffffffffffffff168152602001908152602001600020600301888154811061453a577f4e487b7100000000000000000000000000000000000000000000000000000000600052603260045260246000fd5b906000526020600020906005020160020154600360008b73ffffffffffffffffffffffffffffffffffffffff1673ffffffffffffffffffffffffffffffffffffffff16815260200190815260200160002060030189815481106145c6577f4e487b7100000000000000000000000000000000000000000000000000000000600052603260045260246000fd5b906000526020600020906005020160030160009054906101000a900473ffffffffffffffffffffffffffffffffffffffff16600360008c73ffffffffffffffffffffffffffffffffffffffff1673ffffffffffffffffffffffffffffffffffffffff1681526020019081526020016000206003018a81548110614672577f4e487b7100000000000000000000000000000000000000000000000000000000600052603260045260246000fd5b906000526020600020906005020160040154945094509450945094509295509295909350565b6146a0614a87565b73ffffffffffffffffffffffffffffffffffffffff166146be61365c565b73ffffffffffffffffffffffffffffffffffffffff1614614714576040517f08c379a000000000000000000000000000000000000000000000000000000000815260040161470b90615967565b60405180910390fd5b600073ffffffffffffffffffffffffffffffffffffffff168173ffffffffffffffffffffffffffffffffffffffff161415614784576040517f08c379a000000000000000000000000000000000000000000000000000000000815260040161477b906158a7565b60405180910390fd5b61478d81614a8f565b50565b60008060005b84805490508161ffff16101561485c578373ffffffffffffffffffffffffffffffffffffffff16858261ffff16815481106147fa577f4e487b7100000000000000000000000000000000000000000000000000000000600052603260045260246000fd5b9060005260206000200160009054906101000a900473ffffffffffffffffffffffffffffffffffffffff1673ffffffffffffffffffffffffffffffffffffffff16141561484957809250600191505b808061485490615e0a565b915050614796565b508061489d576040517f08c379a000000000000000000000000000000000000000000000000000000000815260040161489490615a67565b60405180910390fd5b60018480549050141561491b57838054806148e1577f4e487b7100000000000000000000000000000000000000000000000000000000600052603160045260246000fd5b6001900381819060005260206000200160006101000a81549073ffffffffffffffffffffffffffffffffffffffff02191690559055614a81565b836001858054905061492d9190615cd0565b81548110614964577f4e487b7100000000000000000000000000000000000000000000000000000000600052603260045260246000fd5b9060005260206000200160009054906101000a900473ffffffffffffffffffffffffffffffffffffffff16848361ffff16815481106149cc577f4e487b7100000000000000000000000000000000000000000000000000000000600052603260045260246000fd5b9060005260206000200160006101000a81548173ffffffffffffffffffffffffffffffffffffffff021916908373ffffffffffffffffffffffffffffffffffffffff16021790555083805480614a4b577f4e487b7100000000000000000000000000000000000000000000000000000000600052603160045260246000fd5b6001900381819060005260206000200160006101000a81549073ffffffffffffffffffffffffffffffffffffffff021916905590555b50505050565b600033905090565b60008060009054906101000a900473ffffffffffffffffffffffffffffffffffffffff169050816000806101000a81548173ffffffffffffffffffffffffffffffffffffffff021916908373ffffffffffffffffffffffffffffffffffffffff1602179055508173ffffffffffffffffffffffffffffffffffffffff168173ffffffffffffffffffffffffffffffffffffffff167f8be0079c531659141344cd1fd0a4f28419497f9722a3daafe3b4186f6b6457e060405160405180910390a35050565b508054614b5f90615dd8565b6000825580601f10614b715750614b90565b601f016020900490600052602060002090810190614b8f9190614ce8565b5b50565b5080546000825590600052602060002090810190614bb19190614ce8565b50565b5080546000825560050290600052602060002090810190614bd59190614d05565b50565b828054614be490615dd8565b90600052602060002090601f016020900481019282614c065760008555614c4d565b82601f10614c1f57805160ff1916838001178555614c4d565b82800160010185558215614c4d579182015b82811115614c4c578251825591602001919060010190614c31565b5b509050614c5a9190614ce8565b5090565b828054828255906000526020600020908101928215614cd7579160200282015b82811115614cd65782518260006101000a81548173ffffffffffffffffffffffffffffffffffffffff021916908373ffffffffffffffffffffffffffffffffffffffff16021790555091602001919060010190614c7e565b5b509050614ce49190614ce8565b5090565b5b80821115614d01576000816000905550600101614ce9565b5090565b5b80821115614d6c57600080820160006101000a81549061ffff0219169055600182016000905560028201600090556003820160006101000a81549073ffffffffffffffffffffffffffffffffffffffff0219169055600482016000905550600501614d06565b5090565b6000614d83614d7e84615ba0565b615b6f565b905082815260208101848484011115614d9b57600080fd5b614da6848285615d96565b509392505050565b600081359050614dbd81615f5f565b92915050565b600081359050614dd281615f76565b92915050565b600082601f830112614de957600080fd5b8135614df9848260208601614d70565b91505092915050565b600081359050614e1181615f8d565b92915050565b600060208284031215614e2957600080fd5b6000614e3784828501614dae565b91505092915050565b60008060408385031215614e5357600080fd5b6000614e6185828601614dae565b9250506020614e7285828601614dae565b9150509250929050565b600080600060608486031215614e9157600080fd5b6000614e9f86828701614dae565b9350506020614eb086828701614dc3565b9250506040614ec186828701614dc3565b9150509250925092565b60008060408385031215614ede57600080fd5b6000614eec85828601614dae565b925050602083013567ffffffffffffffff811115614f0957600080fd5b614f1585828601614dd8565b9150509250929050565b60008060408385031215614f3257600080fd5b6000614f4085828601614dae565b9250506020614f5185828601614e02565b9150509250929050565b600060208284031215614f6d57600080fd5b6000614f7b84828501614dc3565b91505092915050565b6000614f908383614fe4565b60208301905092915050565b6000614fa88383615189565b60208301905092915050565b6000614fc08383615695565b60208301905092915050565b6000614fd883836156b3565b60208301905092915050565b614fed81615d04565b82525050565b614ffc81615d04565b82525050565b600061500d82615c10565b6150178185615c7b565b935061502283615bd0565b8060005b8381101561505357815161503a8882614f84565b975061504583615c47565b925050600181019050615026565b5085935050505092915050565b600061506b82615c1b565b6150758185615c8c565b935061508083615be0565b8060005b838110156150b15781516150988882614f9c565b97506150a383615c54565b925050600181019050615084565b5085935050505092915050565b60006150c982615c26565b6150d38185615c9d565b93506150de83615bf0565b8060005b8381101561510f5781516150f68882614fb4565b975061510183615c61565b9250506001810190506150e2565b5085935050505092915050565b600061512782615c31565b6151318185615cae565b935061513c83615c00565b8060005b8381101561516d5781516151548882614fcc565b975061515f83615c6e565b925050600181019050615140565b5085935050505092915050565b61518381615d16565b82525050565b61519281615d22565b82525050565b6151a181615d22565b82525050565b6151b081615d84565b82525050565b60006151c182615c3c565b6151cb8185615cbf565b93506151db818560208601615da5565b6151e481615f3a565b840191505092915050565b60006151fc601983615cbf565b91507f50617469656e7420686173206e6f20454852207265636f7264000000000000006000830152602082019050919050565b600061523c601d83615cbf565b91507f416c726561647920417574686f72697a65642062792050617469656e740000006000830152602082019050919050565b600061527c602683615cbf565b91507f4f776e61626c653a206e6577206f776e657220697320746865207a65726f206160008301527f64647265737300000000000000000000000000000000000000000000000000006020830152604082019050919050565b60006152e2601283615cbf565b91507f416c726561647920417574686f72697a656400000000000000000000000000006000830152602082019050919050565b6000615322601283615cbf565b91507f43616e27742061646420796f757273656c6600000000000000000000000000006000830152602082019050919050565b6000615362601b83615cbf565b91507f446f63746f7220686173206e6f207570646174652072696768747300000000006000830152602082019050919050565b60006153a2601783615cbf565b91507f5265676973746572656420446f63746f7273206f6e6c790000000000000000006000830152602082019050919050565b60006153e2601583615cbf565b91507f50617469656e7420646f65736e277420657869737400000000000000000000006000830152602082019050919050565b6000615422602083615cbf565b91507f4f776e61626c653a2063616c6c6572206973206e6f7420746865206f776e65726000830152602082019050919050565b6000615462601383615cbf565b91507f4e6f722061646d696e206e6f72206f776e6572000000000000000000000000006000830152602082019050919050565b60006154a2601483615cbf565b91507f61646d696e20616c7265616479206578697374730000000000000000000000006000830152602082019050919050565b60006154e2601683615cbf565b91507f416c7265616479204e6f7420417574686f72697a6564000000000000000000006000830152602082019050919050565b6000615522601283615cbf565b91507f7573657220646f65736e277420657869737400000000000000000000000000006000830152602082019050919050565b6000615562601583615cbf565b91507f43616e27742072656d6f766520796f757273656c6600000000000000000000006000830152602082019050919050565b60006155a2600d83615cbf565b91507f646f63746f7220657869737473000000000000000000000000000000000000006000830152602082019050919050565b60006155e2601683615cbf565b91507f50617469656e7420646f6573206e6f74206578697374000000000000000000006000830152602082019050919050565b6000615622600e83615cbf565b91507f4e6f206974656d7320666f756e640000000000000000000000000000000000006000830152602082019050919050565b6000615662600e83615cbf565b91507f70617469656e74206578697374730000000000000000000000000000000000006000830152602082019050919050565b61569e81615d3f565b82525050565b6156ad81615d3f565b82525050565b6156bc81615d6d565b82525050565b6156cb81615d6d565b82525050565b6156da81615d77565b82525050565b60006020820190506156f56000830184614ff3565b92915050565b60006040820190506157106000830185614ff3565b61571d6020830184614ff3565b9392505050565b60006060820190506157396000830186614ff3565b6157466020830185614ff3565b6157536040830184615198565b949350505050565b60006060820190506157706000830186614ff3565b818103602083015261578281856151b6565b905061579160408301846156c2565b949350505050565b600060208201905081810360008301526157b38184615002565b905092915050565b600060a08201905081810360008301526157d581886150be565b905081810360208301526157e98187615060565b905081810360408301526157fd8186615060565b905081810360608301526158118185615002565b90508181036080830152615825818461511c565b90509695505050505050565b6000602082019050615846600083018461517a565b92915050565b600060208201905061586160008301846151a7565b92915050565b60006020820190508181036000830152615880816151ef565b9050919050565b600060208201905081810360008301526158a08161522f565b9050919050565b600060208201905081810360008301526158c08161526f565b9050919050565b600060208201905081810360008301526158e0816152d5565b9050919050565b6000602082019050818103600083015261590081615315565b9050919050565b6000602082019050818103600083015261592081615355565b9050919050565b6000602082019050818103600083015261594081615395565b9050919050565b60006020820190508181036000830152615960816153d5565b9050919050565b6000602082019050818103600083015261598081615415565b9050919050565b600060208201905081810360008301526159a081615455565b9050919050565b600060208201905081810360008301526159c081615495565b9050919050565b600060208201905081810360008301526159e0816154d5565b9050919050565b60006020820190508181036000830152615a0081615515565b9050919050565b60006020820190508181036000830152615a2081615555565b9050919050565b60006020820190508181036000830152615a4081615595565b9050919050565b60006020820190508181036000830152615a60816155d5565b9050919050565b60006020820190508181036000830152615a8081615615565b9050919050565b60006020820190508181036000830152615aa081615655565b9050919050565b600060a082019050615abc60008301886156a4565b615ac96020830187615198565b615ad66040830186615198565b615ae36060830185614ff3565b615af060808301846156c2565b9695505050505050565b6000608082019050615b0f60008301876156d1565b8181036020830152615b2181866151b6565b9050615b306040830185614ff3565b615b3d60608301846156c2565b95945050505050565b6000604082019050615b5b60008301856156d1565b615b6860208301846156d1565b9392505050565b6000604051905081810181811067ffffffffffffffff82111715615b9657615b95615f0b565b5b8060405250919050565b600067ffffffffffffffff821115615bbb57615bba615f0b565b5b601f19601f8301169050602081019050919050565b6000819050602082019050919050565b6000819050602082019050919050565b6000819050602082019050919050565b6000819050602082019050919050565b600081519050919050565b600081519050919050565b600081519050919050565b600081519050919050565b600081519050919050565b6000602082019050919050565b6000602082019050919050565b6000602082019050919050565b6000602082019050919050565b600082825260208201905092915050565b600082825260208201905092915050565b600082825260208201905092915050565b600082825260208201905092915050565b600082825260208201905092915050565b6000615cdb82615d6d565b9150615ce683615d6d565b925082821015615cf957615cf8615e7e565b5b828203905092915050565b6000615d0f82615d4d565b9050919050565b60008115159050919050565b6000819050919050565b6000819050615d3a82615f4b565b919050565b600061ffff82169050919050565b600073ffffffffffffffffffffffffffffffffffffffff82169050919050565b6000819050919050565b600060ff82169050919050565b6000615d8f82615d2c565b9050919050565b82818337600083830152505050565b60005b83811015615dc3578082015181840152602081019050615da8565b83811115615dd2576000848401525b50505050565b60006002820490506001821680615df057607f821691505b60208210811415615e0457615e03615edc565b5b50919050565b6000615e1582615d3f565b915061ffff821415615e2a57615e29615e7e565b5b600182019050919050565b6000615e4082615d6d565b91507fffffffffffffffffffffffffffffffffffffffffffffffffffffffffffffffff821415615e7357615e72615e7e565b5b600182019050919050565b7f4e487b7100000000000000000000000000000000000000000000000000000000600052601160045260246000fd5b7f4e487b7100000000000000000000000000000000000000000000000000000000600052602160045260246000fd5b7f4e487b7100000000000000000000000000000000000000000000000000000000600052602260045260246000fd5b7f4e487b7100000000000000000000000000000000000000000000000000000000600052604160045260246000fd5b6000601f19601f8301169050919050565b60058110615f5c57615f5b615ead565b5b50565b615f6881615d04565b8114615f7357600080fd5b50565b615f7f81615d22565b8114615f8a57600080fd5b50565b615f9681615d6d565b8114615fa157600080fd5b5056fea264697066735822122042d6ce5b0001506cdfde86635abf31de2366c373ba32b192faeab27e0a4aa8d864736f6c63430008000033",
  "linkReferences": {},
  "deployedLinkReferences": {}
}