{
  "_format": "hh-sol-artifact-1",
  "contractName": "MedicalBlock",
  "sourceName": "contracts/MedicalBlock.sol",
  "abi": [
    {
      "inputs": [],
      "stateMutability": "nonpayable",
      "type": "constructor"
    },
    {
      "anonymous": false,
      "inputs": [
        {
          "indexed": false,
          "internalType": "address",
          "name": "patient",
          "type": "address"
        },
        {
          "indexed": false,
          "internalType": "address",
          "name": "doctor",
          "type": "address"
        }
      ],
      "name": "AccessGranted",
      "type": "event"
    },
    {
      "anonymous": false,
      "inputs": [
        {
          "indexed": false,
          "internalType": "address",
          "name": "patient",
          "type": "address"
        },
        {
          "indexed": false,
          "internalType": "address",
          "name": "doctor",
          "type": "address"
        }
      ],
      "name": "AccessRevoked",
      "type": "event"
    },
    {
      "anonymous": false,
      "inputs": [
        {
          "indexed": false,
          "internalType": "address",
          "name": "admin",
          "type": "address"
        },
        {
          "indexed": false,
          "internalType": "address",
          "name": "patient",
          "type": "address"
        }
      ],
      "name": "AddedPatient",
      "type": "event"
    },
    {
      "anonymous": false,
      "inputs": [
        {
          "indexed": false,
          "internalType": "address",
          "name": "admin",
          "type": "address"
        },
        {
          "indexed": false,
          "internalType": "address",
          "name": "provider",
          "type": "address"
        }
      ],
      "name": "AddedProvider",
      "type": "event"
    },
    {
      "anonymous": false,
      "inputs": [
        {
          "indexed": false,
          "internalType": "address",
          "name": "patient",
          "type": "address"
        }
      ],
      "name": "CreateEHR",
      "type": "event"
    },
    {
      "anonymous": false,
      "inputs": [
        {
          "indexed": false,
          "internalType": "address",
          "name": "admin",
          "type": "address"
        },
        {
          "indexed": false,
          "internalType": "address",
          "name": "user",
          "type": "address"
        }
      ],
      "name": "DeleteUser",
      "type": "event"
    },
    {
      "anonymous": false,
      "inputs": [
        {
          "indexed": true,
          "internalType": "address",
          "name": "previousOwner",
          "type": "address"
        },
        {
          "indexed": true,
          "internalType": "address",
          "name": "newOwner",
          "type": "address"
        }
      ],
      "name": "OwnershipTransferred",
      "type": "event"
    },
    {
      "anonymous": false,
      "inputs": [
        {
          "indexed": false,
          "internalType": "address",
          "name": "patient",
          "type": "address"
        },
        {
          "indexed": false,
          "internalType": "address",
          "name": "serviceProvider",
          "type": "address"
        },
        {
          "indexed": false,
          "internalType": "bytes32",
          "name": "EHRhash",
          "type": "bytes32"
        }
      ],
      "name": "UpdatedEHR",
      "type": "event"
    },
    {
      "inputs": [
        {
          "internalType": "address",
          "name": "_passedAddress",
          "type": "address"
        }
      ],
      "name": "_retrieveRecords",
      "outputs": [
        {
          "internalType": "uint16[]",
          "name": "_accessKeys",
          "type": "uint16[]"
        },
        {
          "internalType": "bytes32[]",
          "name": "_encryptHash",
          "type": "bytes32[]"
        },
        {
          "internalType": "address[]",
          "name": "_issuers",
          "type": "address[]"
        },
        {
          "internalType": "uint256[]",
          "name": "_dates",
          "type": "uint256[]"
        }
      ],
      "stateMutability": "view",
      "type": "function"
    },
    {
      "inputs": [
        {
          "internalType": "address",
          "name": "_adminAddress",
          "type": "address"
        }
      ],
      "name": "addAdmin",
      "outputs": [],
      "stateMutability": "nonpayable",
      "type": "function"
    },
    {
      "inputs": [
        {
          "internalType": "address",
          "name": "_doctorAddress",
          "type": "address"
        },
        {
          "internalType": "string",
          "name": "_name",
          "type": "string"
        }
      ],
      "name": "addDoctor",
      "outputs": [],
      "stateMutability": "nonpayable",
      "type": "function"
    },
    {
      "inputs": [
        {
          "internalType": "address",
          "name": "_patientAddress",
          "type": "address"
        },
        {
          "internalType": "string",
          "name": "_name",
          "type": "string"
        }
      ],
      "name": "addPatient",
      "outputs": [],
      "stateMutability": "nonpayable",
      "type": "function"
    },
    {
      "inputs": [
        {
          "internalType": "bytes32",
          "name": "EHRhash",
          "type": "bytes32"
        }
      ],
      "name": "createDefaultEHR",
      "outputs": [],
      "stateMutability": "nonpayable",
      "type": "function"
    },
    {
      "inputs": [
        {
          "internalType": "address",
          "name": "_userAddress",
          "type": "address"
        }
      ],
      "name": "deleteAccount",
      "outputs": [],
      "stateMutability": "nonpayable",
      "type": "function"
    },
    {
      "inputs": [],
      "name": "getAuthDoctors",
      "outputs": [
        {
          "internalType": "address[]",
          "name": "",
          "type": "address[]"
        }
      ],
      "stateMutability": "view",
      "type": "function"
    },
    {
      "inputs": [],
      "name": "getAuthPatients",
      "outputs": [
        {
          "internalType": "address[]",
          "name": "",
          "type": "address[]"
        }
      ],
      "stateMutability": "view",
      "type": "function"
    },
    {
      "inputs": [
        {
          "internalType": "address",
          "name": "_providerAddress",
          "type": "address"
        }
      ],
      "name": "getDoctorInfo",
      "outputs": [
        {
          "internalType": "address",
          "name": "_address",
          "type": "address"
        },
        {
          "internalType": "string",
          "name": "name",
          "type": "string"
        },
        {
          "internalType": "uint256",
          "name": "date",
          "type": "uint256"
        }
      ],
      "stateMutability": "view",
      "type": "function"
    },
    {
      "inputs": [],
      "name": "getDoctorList",
      "outputs": [
        {
          "internalType": "address[]",
          "name": "",
          "type": "address[]"
        }
      ],
      "stateMutability": "view",
      "type": "function"
    },
    {
      "inputs": [],
      "name": "getNetwork",
      "outputs": [
        {
          "internalType": "address[]",
          "name": "",
          "type": "address[]"
        }
      ],
      "stateMutability": "view",
      "type": "function"
    },
    {
      "inputs": [],
      "name": "getOwnRecords",
      "outputs": [
        {
          "internalType": "uint16[]",
          "name": "_accessKeys",
          "type": "uint16[]"
        },
        {
          "internalType": "bytes32[]",
          "name": "_encryptHash",
          "type": "bytes32[]"
        },
        {
          "internalType": "address[]",
          "name": "_issuers",
          "type": "address[]"
        },
        {
          "internalType": "uint256[]",
          "name": "_dates",
          "type": "uint256[]"
        }
      ],
      "stateMutability": "view",
      "type": "function"
    },
    {
      "inputs": [
        {
          "internalType": "address",
          "name": "_patientAddress",
          "type": "address"
        }
      ],
      "name": "getPatientDisplayInfo",
      "outputs": [
        {
          "internalType": "uint8",
          "name": "exist",
          "type": "uint8"
        },
        {
          "internalType": "string",
          "name": "name",
          "type": "string"
        },
        {
          "internalType": "address",
          "name": "addr",
          "type": "address"
        },
        {
          "internalType": "uint256",
          "name": "date",
          "type": "uint256"
        }
      ],
      "stateMutability": "view",
      "type": "function"
    },
    {
      "inputs": [],
      "name": "getPatientList",
      "outputs": [
        {
          "internalType": "address[]",
          "name": "",
          "type": "address[]"
        }
      ],
      "stateMutability": "view",
      "type": "function"
    },
    {
      "inputs": [
        {
          "internalType": "address",
          "name": "_patientAddress",
          "type": "address"
        },
        {
          "internalType": "address",
          "name": "_serviceProvider",
          "type": "address"
        }
      ],
      "name": "getPermissions",
      "outputs": [
        {
          "internalType": "uint8",
          "name": "read",
          "type": "uint8"
        },
        {
          "internalType": "uint8",
          "name": "write",
          "type": "uint8"
        }
      ],
      "stateMutability": "view",
      "type": "function"
    },
    {
      "inputs": [
        {
          "internalType": "address",
          "name": "_patientAddress",
          "type": "address"
        },
        {
          "internalType": "uint256",
          "name": "idx",
          "type": "uint256"
        }
      ],
      "name": "getRecordIdx",
      "outputs": [
        {
          "internalType": "uint16",
          "name": "accessKey",
          "type": "uint16"
        },
        {
          "internalType": "bytes32",
          "name": "encryptHash",
          "type": "bytes32"
        },
        {
          "internalType": "address",
          "name": "issuer",
          "type": "address"
        },
        {
          "internalType": "uint256",
          "name": "date",
          "type": "uint256"
        }
      ],
      "stateMutability": "view",
      "type": "function"
    },
    {
      "inputs": [
        {
          "internalType": "address",
          "name": "_patientAddress",
          "type": "address"
        }
      ],
      "name": "getRecords",
      "outputs": [
        {
          "internalType": "uint16[]",
          "name": "_accessKeys",
          "type": "uint16[]"
        },
        {
          "internalType": "bytes32[]",
          "name": "_encryptHash",
          "type": "bytes32[]"
        },
        {
          "internalType": "address[]",
          "name": "_issuers",
          "type": "address[]"
        },
        {
          "internalType": "uint256[]",
          "name": "_dates",
          "type": "uint256[]"
        }
      ],
      "stateMutability": "view",
      "type": "function"
    },
    {
      "inputs": [
        {
          "internalType": "address",
          "name": "_userAddress",
          "type": "address"
        }
      ],
      "name": "getRole",
      "outputs": [
        {
          "internalType": "enum IMedicalBlock.Role",
          "name": "",
          "type": "uint8"
        }
      ],
      "stateMutability": "view",
      "type": "function"
    },
    {
      "inputs": [
        {
          "internalType": "address",
          "name": "_doctorAddress",
          "type": "address"
        }
      ],
      "name": "grantAccess",
      "outputs": [],
      "stateMutability": "nonpayable",
      "type": "function"
    },
    {
      "inputs": [
        {
          "internalType": "address",
          "name": "_patientAddress",
          "type": "address"
        },
        {
          "internalType": "address",
          "name": "_doctorAddress",
          "type": "address"
        }
      ],
      "name": "grantAccessDocToDoc",
      "outputs": [],
      "stateMutability": "nonpayable",
      "type": "function"
    },
    {
      "inputs": [],
      "name": "owner",
      "outputs": [
        {
          "internalType": "address",
          "name": "",
          "type": "address"
        }
      ],
      "stateMutability": "view",
      "type": "function"
    },
    {
      "inputs": [],
      "name": "renounceOwnership",
      "outputs": [],
      "stateMutability": "nonpayable",
      "type": "function"
    },
    {
      "inputs": [
        {
          "internalType": "address",
          "name": "_doctorAddress",
          "type": "address"
        }
      ],
      "name": "revokeAccess",
      "outputs": [],
      "stateMutability": "nonpayable",
      "type": "function"
    },
    {
      "inputs": [
        {
          "internalType": "address",
          "name": "_address",
          "type": "address"
        }
      ],
      "name": "seeAdminExists",
      "outputs": [
        {
          "internalType": "bool",
          "name": "exists",
          "type": "bool"
        }
      ],
      "stateMutability": "view",
      "type": "function"
    },
    {
      "inputs": [
        {
          "internalType": "address",
          "name": "_address",
          "type": "address"
        }
      ],
      "name": "seeDoctorExists",
      "outputs": [
        {
          "internalType": "bool",
          "name": "exists",
          "type": "bool"
        }
      ],
      "stateMutability": "view",
      "type": "function"
    },
    {
      "inputs": [
        {
          "internalType": "address",
          "name": "_address",
          "type": "address"
        }
      ],
      "name": "seePatientExists",
      "outputs": [
        {
          "internalType": "bool",
          "name": "exists",
          "type": "bool"
        }
      ],
      "stateMutability": "view",
      "type": "function"
    },
    {
      "inputs": [
        {
          "internalType": "address",
          "name": "newOwner",
          "type": "address"
        }
      ],
      "name": "transferOwnership",
      "outputs": [],
      "stateMutability": "nonpayable",
      "type": "function"
    },
    {
      "inputs": [
        {
          "internalType": "address",
          "name": "_patientAddress",
          "type": "address"
        },
        {
          "internalType": "bytes32",
          "name": "EHRhash",
          "type": "bytes32"
        }
      ],
      "name": "updateEHR",
      "outputs": [],
      "stateMutability": "nonpayable",
      "type": "function"
    }
  ],
  "bytecode": "0x60806040523480156200001157600080fd5b5062000032620000266200003860201b60201c565b6200004060201b60201c565b62000104565b600033905090565b60008060009054906101000a900473ffffffffffffffffffffffffffffffffffffffff169050816000806101000a81548173ffffffffffffffffffffffffffffffffffffffff021916908373ffffffffffffffffffffffffffffffffffffffff1602179055508173ffffffffffffffffffffffffffffffffffffffff168173ffffffffffffffffffffffffffffffffffffffff167f8be0079c531659141344cd1fd0a4f28419497f9722a3daafe3b4186f6b6457e060405160405180910390a35050565b615e0d80620001146000396000f3fe608060405234801561001057600080fd5b50600436106101c45760003560e01c80636f12fc35116100f9578063a0076e8411610097578063c068d1c511610071578063c068d1c514610526578063db66c06014610544578063e5186c4514610560578063f2fde38b14610593576101c4565b8063a0076e84146104a2578063a5bc9118146104d5578063a71aefc914610508576101c4565b80637cf1e445116100d35780637cf1e445146104305780637f399dbf1461044c57806385e68531146104685780638da5cb5b14610484576101c4565b80636f12fc35146103d8578063704802751461040a578063715018a614610426576101c4565b806347eac06711610166578063503b135411610140578063503b13541461033957806357444b99146103575780636894d6531461037857806368da81d3146103a8576101c4565b806347eac067146102e357806347eec307146102ff5780634c1b64cb1461031d576101c4565b80633a6f2941116101a25780633a6f29411461021f578063442767331461024f5780634566c3691461027f5780634757d3bb146102b2576101c4565b806307e4b7e9146101c95780630ae5e739146101e7578063221e6e0614610203575b600080fd5b6101d16105af565b6040516101de91906155ef565b60405180910390f35b61020160048036038101906101fc9190614c80565b61067d565b005b61021d60048036038101906102189190614ca9565b610cd3565b005b61023960048036038101906102349190614c80565b6112c7565b6040516102469190615672565b60405180910390f35b61026960048036038101906102649190614c80565b61131d565b604051610276919061568d565b60405180910390f35b61029960048036038101906102949190614c80565b611490565b6040516102a99493929190615611565b60405180910390f35b6102cc60048036038101906102c79190614ca9565b611875565b6040516102da929190615979565b60405180910390f35b6102fd60048036038101906102f89190614db1565b61199d565b005b610307611bdb565b60405161031491906155ef565b60405180910390f35b61033760048036038101906103329190614c80565b611d3e565b005b610341612250565b60405161034e91906155ef565b60405180910390f35b61035f6122de565b60405161036f9493929190615611565b60405180910390f35b610392600480360381019061038d9190614c80565b612418565b60405161039f9190615672565b60405180910390f35b6103c260048036038101906103bd9190614c80565b612477565b6040516103cf9190615672565b60405180910390f35b6103f260048036038101906103ed9190614c80565b6124d6565b604051610401939291906155b1565b60405180910390f35b610424600480360381019061041f9190614c80565b61265d565b005b61042e6127c1565b005b61044a60048036038101906104459190614d21565b612849565b005b61046660048036038101906104619190614ce5565b612ceb565b005b610482600480360381019061047d9190614c80565b6130fc565b005b61048c61356e565b6040516104999190615536565b60405180910390f35b6104bc60048036038101906104b79190614c80565b613597565b6040516104cc9493929190615611565b60405180910390f35b6104ef60048036038101906104ea9190614c80565b6137a3565b6040516104ff949392919061592d565b60405180910390f35b610510613b40565b60405161051d91906155ef565b60405180910390f35b61052e613bce565b60405161053b91906155ef565b60405180910390f35b61055e60048036038101906105599190614d21565b613d31565b005b61057a60048036038101906105759190614d75565b614294565b60405161058a94939291906158e8565b60405180910390f35b6105ad60048036038101906105a89190614c80565b614509565b005b6060600760003373ffffffffffffffffffffffffffffffffffffffff1673ffffffffffffffffffffffffffffffffffffffff16815260200190815260200160002060000180548060200260200160405190810160405280929190818152602001828054801561067357602002820191906000526020600020905b8160009054906101000a900473ffffffffffffffffffffffffffffffffffffffff1673ffffffffffffffffffffffffffffffffffffffff1681526020019060010190808311610629575b5050505050905090565b6001600360003373ffffffffffffffffffffffffffffffffffffffff1673ffffffffffffffffffffffffffffffffffffffff16815260200190815260200160002060000160009054906101000a900460ff1660ff1614610712576040517f08c379a000000000000000000000000000000000000000000000000000000000815260040161070990615788565b60405180910390fd5b6000600160003373ffffffffffffffffffffffffffffffffffffffff1673ffffffffffffffffffffffffffffffffffffffff16815260200190815260200160002060008373ffffffffffffffffffffffffffffffffffffffff1673ffffffffffffffffffffffffffffffffffffffff16815260200190815260200160002060000160009054906101000a900460ff1660ff1614801561084057506000600160003373ffffffffffffffffffffffffffffffffffffffff1673ffffffffffffffffffffffffffffffffffffffff16815260200190815260200160002060008373ffffffffffffffffffffffffffffffffffffffff1673ffffffffffffffffffffffffffffffffffffffff16815260200190815260200160002060000160019054906101000a900460ff1660ff16145b80156108db57506000600160003373ffffffffffffffffffffffffffffffffffffffff1673ffffffffffffffffffffffffffffffffffffffff16815260200190815260200160002060008373ffffffffffffffffffffffffffffffffffffffff1673ffffffffffffffffffffffffffffffffffffffff16815260200190815260200160002060000160029054906101000a900460ff1660ff16145b61091a576040517f08c379a000000000000000000000000000000000000000000000000000000000815260040161091190615708565b60405180910390fd5b8073ffffffffffffffffffffffffffffffffffffffff163373ffffffffffffffffffffffffffffffffffffffff161415610989576040517f08c379a000000000000000000000000000000000000000000000000000000000815260040161098090615728565b60405180910390fd5b60018060003373ffffffffffffffffffffffffffffffffffffffff1673ffffffffffffffffffffffffffffffffffffffff16815260200190815260200160002060008373ffffffffffffffffffffffffffffffffffffffff1673ffffffffffffffffffffffffffffffffffffffff16815260200190815260200160002060000160006101000a81548160ff021916908360ff16021790555060018060003373ffffffffffffffffffffffffffffffffffffffff1673ffffffffffffffffffffffffffffffffffffffff16815260200190815260200160002060008373ffffffffffffffffffffffffffffffffffffffff1673ffffffffffffffffffffffffffffffffffffffff16815260200190815260200160002060000160016101000a81548160ff021916908360ff16021790555060018060003373ffffffffffffffffffffffffffffffffffffffff1673ffffffffffffffffffffffffffffffffffffffff16815260200190815260200160002060008373ffffffffffffffffffffffffffffffffffffffff1673ffffffffffffffffffffffffffffffffffffffff16815260200190815260200160002060000160026101000a81548160ff021916908360ff1602179055507f9f520b3bfc56d06f7065d10b4683b3f57ac8895d5026cd176dee95ce1454cb8d3382604051610b82929190615551565b60405180910390a1600360003373ffffffffffffffffffffffffffffffffffffffff1673ffffffffffffffffffffffffffffffffffffffff168152602001908152602001600020600601819080600181540180825580915050600190039060005260206000200160009091909190916101000a81548173ffffffffffffffffffffffffffffffffffffffff021916908373ffffffffffffffffffffffffffffffffffffffff160217905550600260008273ffffffffffffffffffffffffffffffffffffffff1673ffffffffffffffffffffffffffffffffffffffff168152602001908152602001600020600501339080600181540180825580915050600190039060005260206000200160009091909190916101000a81548173ffffffffffffffffffffffffffffffffffffffff021916908373ffffffffffffffffffffffffffffffffffffffff16021790555050565b6001600260003373ffffffffffffffffffffffffffffffffffffffff1673ffffffffffffffffffffffffffffffffffffffff16815260200190815260200160002060000160009054906101000a900460ff1660ff1614610d68576040517f08c379a0000000000000000000000000000000000000000000000000000000008152600401610d5f90615768565b60405180910390fd5b6000600160008473ffffffffffffffffffffffffffffffffffffffff1673ffffffffffffffffffffffffffffffffffffffff16815260200190815260200160002060008373ffffffffffffffffffffffffffffffffffffffff1673ffffffffffffffffffffffffffffffffffffffff16815260200190815260200160002060000160009054906101000a900460ff1660ff1614610e3a576040517f08c379a0000000000000000000000000000000000000000000000000000000008152600401610e31906156c8565b60405180910390fd5b6000600160003373ffffffffffffffffffffffffffffffffffffffff1673ffffffffffffffffffffffffffffffffffffffff16815260200190815260200160002060008373ffffffffffffffffffffffffffffffffffffffff1673ffffffffffffffffffffffffffffffffffffffff16815260200190815260200160002060000160009054906101000a900460ff1660ff1614610f0c576040517f08c379a0000000000000000000000000000000000000000000000000000000008152600401610f0390615708565b60405180910390fd5b8073ffffffffffffffffffffffffffffffffffffffff163373ffffffffffffffffffffffffffffffffffffffff161415610f7b576040517f08c379a0000000000000000000000000000000000000000000000000000000008152600401610f7290615728565b60405180910390fd5b60018060008473ffffffffffffffffffffffffffffffffffffffff1673ffffffffffffffffffffffffffffffffffffffff16815260200190815260200160002060008373ffffffffffffffffffffffffffffffffffffffff1673ffffffffffffffffffffffffffffffffffffffff16815260200190815260200160002060000160006101000a81548160ff021916908360ff16021790555060018060008473ffffffffffffffffffffffffffffffffffffffff1673ffffffffffffffffffffffffffffffffffffffff16815260200190815260200160002060008373ffffffffffffffffffffffffffffffffffffffff1673ffffffffffffffffffffffffffffffffffffffff16815260200190815260200160002060000160016101000a81548160ff021916908360ff1602179055506000600160008473ffffffffffffffffffffffffffffffffffffffff1673ffffffffffffffffffffffffffffffffffffffff16815260200190815260200160002060008373ffffffffffffffffffffffffffffffffffffffff1673ffffffffffffffffffffffffffffffffffffffff16815260200190815260200160002060000160026101000a81548160ff021916908360ff1602179055507f9f520b3bfc56d06f7065d10b4683b3f57ac8895d5026cd176dee95ce1454cb8d3382604051611175929190615551565b60405180910390a1600360008373ffffffffffffffffffffffffffffffffffffffff1673ffffffffffffffffffffffffffffffffffffffff168152602001908152602001600020600601819080600181540180825580915050600190039060005260206000200160009091909190916101000a81548173ffffffffffffffffffffffffffffffffffffffff021916908373ffffffffffffffffffffffffffffffffffffffff160217905550600260008273ffffffffffffffffffffffffffffffffffffffff1673ffffffffffffffffffffffffffffffffffffffff168152602001908152602001600020600501829080600181540180825580915050600190039060005260206000200160009091909190916101000a81548173ffffffffffffffffffffffffffffffffffffffff021916908373ffffffffffffffffffffffffffffffffffffffff1602179055505050565b6000600660008373ffffffffffffffffffffffffffffffffffffffff1673ffffffffffffffffffffffffffffffffffffffff16815260200190815260200160002060009054906101000a900460ff169050919050565b60008173ffffffffffffffffffffffffffffffffffffffff1661133e61356e565b73ffffffffffffffffffffffffffffffffffffffff161415611363576000905061148b565b600660008373ffffffffffffffffffffffffffffffffffffffff1673ffffffffffffffffffffffffffffffffffffffff16815260200190815260200160002060009054906101000a900460ff16156113be576001905061148b565b6001600260008473ffffffffffffffffffffffffffffffffffffffff1673ffffffffffffffffffffffffffffffffffffffff16815260200190815260200160002060000160009054906101000a900460ff1660ff161415611422576002905061148b565b6001600360008473ffffffffffffffffffffffffffffffffffffffff1673ffffffffffffffffffffffffffffffffffffffff16815260200190815260200160002060000160009054906101000a900460ff1660ff161415611486576003905061148b565b600490505b919050565b60608060608060008073ffffffffffffffffffffffffffffffffffffffff168673ffffffffffffffffffffffffffffffffffffffff16146114d157856114d3565b335b90506000600360008373ffffffffffffffffffffffffffffffffffffffff1673ffffffffffffffffffffffffffffffffffffffff16815260200190815260200160002060030180549050905060008167ffffffffffffffff811115611561577f4e487b7100000000000000000000000000000000000000000000000000000000600052604160045260246000fd5b60405190808252806020026020018201604052801561158f5781602001602082028036833780820191505090505b50905060008267ffffffffffffffff8111156115d4577f4e487b7100000000000000000000000000000000000000000000000000000000600052604160045260246000fd5b6040519080825280602002602001820160405280156116025781602001602082028036833780820191505090505b50905060008367ffffffffffffffff811115611647577f4e487b7100000000000000000000000000000000000000000000000000000000600052604160045260246000fd5b6040519080825280602002602001820160405280156116755781602001602082028036833780820191505090505b50905060008467ffffffffffffffff8111156116ba577f4e487b7100000000000000000000000000000000000000000000000000000000600052604160045260246000fd5b6040519080825280602002602001820160405280156116e85781602001602082028036833780820191505090505b50905060005b8581101561185b576117008782614294565b888581518110611739577f4e487b7100000000000000000000000000000000000000000000000000000000600052603260045260246000fd5b60200260200101888681518110611779577f4e487b7100000000000000000000000000000000000000000000000000000000600052603260045260246000fd5b602002602001018887815181106117b9577f4e487b7100000000000000000000000000000000000000000000000000000000600052603260045260246000fd5b602002602001018888815181106117f9577f4e487b7100000000000000000000000000000000000000000000000000000000600052603260045260246000fd5b60200260200101848152508473ffffffffffffffffffffffffffffffffffffffff1673ffffffffffffffffffffffffffffffffffffffff16815250848152508461ffff1661ffff1681525050505050808061185390615c68565b9150506116ee565b508383838399509950995099505050505050509193509193565b600080600160008573ffffffffffffffffffffffffffffffffffffffff1673ffffffffffffffffffffffffffffffffffffffff16815260200190815260200160002060008473ffffffffffffffffffffffffffffffffffffffff1673ffffffffffffffffffffffffffffffffffffffff16815260200190815260200160002060000160019054906101000a900460ff16600160008673ffffffffffffffffffffffffffffffffffffffff1673ffffffffffffffffffffffffffffffffffffffff16815260200190815260200160002060008573ffffffffffffffffffffffffffffffffffffffff1673ffffffffffffffffffffffffffffffffffffffff16815260200190815260200160002060000160029054906101000a900460ff16915091509250929050565b6001600360003373ffffffffffffffffffffffffffffffffffffffff1673ffffffffffffffffffffffffffffffffffffffff16815260200190815260200160002060000160009054906101000a900460ff1660ff1614611a32576040517f08c379a0000000000000000000000000000000000000000000000000000000008152600401611a2990615788565b60405180910390fd5b611a3b33612477565b611a7a576040517f08c379a0000000000000000000000000000000000000000000000000000000008152600401611a7190615788565b60405180910390fd5b600360003373ffffffffffffffffffffffffffffffffffffffff1673ffffffffffffffffffffffffffffffffffffffff1681526020019081526020016000206003016040518060800160405280600161ffff1681526020018381526020013373ffffffffffffffffffffffffffffffffffffffff16815260200142815250908060018154018082558091505060019003906000526020600020906004020160009091909190915060008201518160000160006101000a81548161ffff021916908361ffff1602179055506020820151816001015560408201518160020160006101000a81548173ffffffffffffffffffffffffffffffffffffffff021916908373ffffffffffffffffffffffffffffffffffffffff1602179055506060820151816003015550507f4226edf06d7586d3156506407b6478715b1e68c92f3b5acc6bf7a03dcacff9a733604051611bd09190615536565b60405180910390a150565b60606001600260003373ffffffffffffffffffffffffffffffffffffffff1673ffffffffffffffffffffffffffffffffffffffff16815260200190815260200160002060000160009054906101000a900460ff1660ff1614611c72576040517f08c379a0000000000000000000000000000000000000000000000000000000008152600401611c6990615768565b60405180910390fd5b600260003373ffffffffffffffffffffffffffffffffffffffff1673ffffffffffffffffffffffffffffffffffffffff168152602001908152602001600020600501805480602002602001604051908101604052809291908181526020018280548015611d3457602002820191906000526020600020905b8160009054906101000a900473ffffffffffffffffffffffffffffffffffffffff1673ffffffffffffffffffffffffffffffffffffffff1681526020019060010190808311611cea575b5050505050905090565b600660003373ffffffffffffffffffffffffffffffffffffffff1673ffffffffffffffffffffffffffffffffffffffff16815260200190815260200160002060009054906101000a900460ff1680611dc857503373ffffffffffffffffffffffffffffffffffffffff16611db061356e565b73ffffffffffffffffffffffffffffffffffffffff16145b611e07576040517f08c379a0000000000000000000000000000000000000000000000000000000008152600401611dfe906157c8565b60405180910390fd5b6001600360008373ffffffffffffffffffffffffffffffffffffffff1673ffffffffffffffffffffffffffffffffffffffff16815260200190815260200160002060000160009054906101000a900460ff1660ff161480611eba57506001600260008373ffffffffffffffffffffffffffffffffffffffff1673ffffffffffffffffffffffffffffffffffffffff16815260200190815260200160002060000160009054906101000a900460ff1660ff16145b611ef9576040517f08c379a0000000000000000000000000000000000000000000000000000000008152600401611ef090615828565b60405180910390fd5b611f44600760003373ffffffffffffffffffffffffffffffffffffffff1673ffffffffffffffffffffffffffffffffffffffff16815260200190815260200160002060000182614601565b60026004811115611f7e577f4e487b7100000000000000000000000000000000000000000000000000000000600052602160045260246000fd5b611f878261131d565b6004811115611fbf577f4e487b7100000000000000000000000000000000000000000000000000000000600052602160045260246000fd5b14156120a157611fd0600582614601565b600260008273ffffffffffffffffffffffffffffffffffffffff1673ffffffffffffffffffffffffffffffffffffffff168152602001908152602001600020600080820160006101000a81549060ff021916905560018201600061203491906149c4565b6002820160006101000a81549073ffffffffffffffffffffffffffffffffffffffff02191690556003820160006101000a81549073ffffffffffffffffffffffffffffffffffffffff0219169055600482016000905560058201600061209a9190614a04565b5050612214565b600360048111156120db577f4e487b7100000000000000000000000000000000000000000000000000000000600052602160045260246000fd5b6120e48261131d565b600481111561211c577f4e487b7100000000000000000000000000000000000000000000000000000000600052602160045260246000fd5b141561220e5761212d600482614601565b600360008273ffffffffffffffffffffffffffffffffffffffff1673ffffffffffffffffffffffffffffffffffffffff168152602001908152602001600020600080820160006101000a81549060ff021916905560018201600061219191906149c4565b6002820160006101000a81549073ffffffffffffffffffffffffffffffffffffffff02191690556003820160006121c89190614a25565b6004820160006101000a81549073ffffffffffffffffffffffffffffffffffffffff021916905560058201600090556006820160006122079190614a04565b5050612213565b600080fd5b5b7f8232e09e17a730dda9674b1995113024ef90277b40c26da33266b8e34eb0ad813382604051612245929190615551565b60405180910390a150565b606060048054806020026020016040519081016040528092919081815260200182805480156122d457602002820191906000526020600020905b8160009054906101000a900473ffffffffffffffffffffffffffffffffffffffff1673ffffffffffffffffffffffffffffffffffffffff168152602001906001019080831161228a575b5050505050905090565b6060806060806001600360003373ffffffffffffffffffffffffffffffffffffffff1673ffffffffffffffffffffffffffffffffffffffff16815260200190815260200160002060000160009054906101000a900460ff1660ff1614612379576040517f08c379a000000000000000000000000000000000000000000000000000000000815260040161237090615788565b60405180910390fd5b6000600360003373ffffffffffffffffffffffffffffffffffffffff1673ffffffffffffffffffffffffffffffffffffffff1681526020019081526020016000206003018054905011612401576040517f08c379a00000000000000000000000000000000000000000000000000000000081526004016123f8906156a8565b60405180910390fd5b61240a33611490565b935093509350935090919293565b60006001600260008473ffffffffffffffffffffffffffffffffffffffff1673ffffffffffffffffffffffffffffffffffffffff16815260200190815260200160002060000160009054906101000a900460ff1660ff16149050919050565b60006001600360008473ffffffffffffffffffffffffffffffffffffffff1673ffffffffffffffffffffffffffffffffffffffff16815260200190815260200160002060000160009054906101000a900460ff1660ff16149050919050565b600060606000600260008573ffffffffffffffffffffffffffffffffffffffff1673ffffffffffffffffffffffffffffffffffffffff16815260200190815260200160002060020160009054906101000a900473ffffffffffffffffffffffffffffffffffffffff16600260008673ffffffffffffffffffffffffffffffffffffffff1673ffffffffffffffffffffffffffffffffffffffff168152602001908152602001600020600101600260008773ffffffffffffffffffffffffffffffffffffffff1673ffffffffffffffffffffffffffffffffffffffff168152602001908152602001600020600401548180546125d090615c0b565b80601f01602080910402602001604051908101604052809291908181526020018280546125fc90615c0b565b80156126495780601f1061261e57610100808354040283529160200191612649565b820191906000526020600020905b81548152906001019060200180831161262c57829003601f168201915b505050505091509250925092509193909250565b6126656148f8565b73ffffffffffffffffffffffffffffffffffffffff1661268361356e565b73ffffffffffffffffffffffffffffffffffffffff16146126d9576040517f08c379a00000000000000000000000000000000000000000000000000000000081526004016126d0906157a8565b60405180910390fd5b600660008273ffffffffffffffffffffffffffffffffffffffff1673ffffffffffffffffffffffffffffffffffffffff16815260200190815260200160002060009054906101000a900460ff1615612766576040517f08c379a000000000000000000000000000000000000000000000000000000000815260040161275d906157e8565b60405180910390fd5b6001600660008373ffffffffffffffffffffffffffffffffffffffff1673ffffffffffffffffffffffffffffffffffffffff16815260200190815260200160002060006101000a81548160ff02191690831515021790555050565b6127c96148f8565b73ffffffffffffffffffffffffffffffffffffffff166127e761356e565b73ffffffffffffffffffffffffffffffffffffffff161461283d576040517f08c379a0000000000000000000000000000000000000000000000000000000008152600401612834906157a8565b60405180910390fd5b6128476000614900565b565b600660003373ffffffffffffffffffffffffffffffffffffffff1673ffffffffffffffffffffffffffffffffffffffff16815260200190815260200160002060009054906101000a900460ff16806128d357503373ffffffffffffffffffffffffffffffffffffffff166128bb61356e565b73ffffffffffffffffffffffffffffffffffffffff16145b612912576040517f08c379a0000000000000000000000000000000000000000000000000000000008152600401612909906157c8565b60405180910390fd5b6000600260008473ffffffffffffffffffffffffffffffffffffffff1673ffffffffffffffffffffffffffffffffffffffff16815260200190815260200160002060000160009054906101000a900460ff1660ff16146129a7576040517f08c379a000000000000000000000000000000000000000000000000000000000815260040161299e90615868565b60405180910390fd5b6040518060c00160405280600160ff1681526020018281526020018373ffffffffffffffffffffffffffffffffffffffff1681526020013373ffffffffffffffffffffffffffffffffffffffff168152602001428152602001600067ffffffffffffffff811115612a41577f4e487b7100000000000000000000000000000000000000000000000000000000600052604160045260246000fd5b604051908082528060200260200182016040528015612a6f5781602001602082028036833780820191505090505b50815250600260008473ffffffffffffffffffffffffffffffffffffffff1673ffffffffffffffffffffffffffffffffffffffff16815260200190815260200160002060008201518160000160006101000a81548160ff021916908360ff1602179055506020820151816001019080519060200190612aef929190614a49565b5060408201518160020160006101000a81548173ffffffffffffffffffffffffffffffffffffffff021916908373ffffffffffffffffffffffffffffffffffffffff16021790555060608201518160030160006101000a81548173ffffffffffffffffffffffffffffffffffffffff021916908373ffffffffffffffffffffffffffffffffffffffff1602179055506080820151816004015560a0820151816005019080519060200190612ba4929190614acf565b509050507f0a2403c9b7f8705c838850b75ef6ddc39f142c13249e85479aca0cbe6e4a87393383604051612bd9929190615551565b60405180910390a1600760003373ffffffffffffffffffffffffffffffffffffffff1673ffffffffffffffffffffffffffffffffffffffff168152602001908152602001600020600001829080600181540180825580915050600190039060005260206000200160009091909190916101000a81548173ffffffffffffffffffffffffffffffffffffffff021916908373ffffffffffffffffffffffffffffffffffffffff1602179055506005829080600181540180825580915050600190039060005260206000200160009091909190916101000a81548173ffffffffffffffffffffffffffffffffffffffff021916908373ffffffffffffffffffffffffffffffffffffffff1602179055505050565b6001600260003373ffffffffffffffffffffffffffffffffffffffff1673ffffffffffffffffffffffffffffffffffffffff16815260200190815260200160002060000160009054906101000a900460ff1660ff1614612d80576040517f08c379a0000000000000000000000000000000000000000000000000000000008152600401612d7790615768565b60405180910390fd5b612d8982612477565b612dc8576040517f08c379a0000000000000000000000000000000000000000000000000000000008152600401612dbf90615788565b60405180910390fd5b60018060008473ffffffffffffffffffffffffffffffffffffffff1673ffffffffffffffffffffffffffffffffffffffff16815260200190815260200160002060003373ffffffffffffffffffffffffffffffffffffffff1673ffffffffffffffffffffffffffffffffffffffff16815260200190815260200160002060000160029054906101000a900460ff1660ff1614612e99576040517f08c379a0000000000000000000000000000000000000000000000000000000008152600401612e9090615748565b60405180910390fd5b6000600360008473ffffffffffffffffffffffffffffffffffffffff1673ffffffffffffffffffffffffffffffffffffffff1681526020019081526020016000206003016001600360008673ffffffffffffffffffffffffffffffffffffffff1673ffffffffffffffffffffffffffffffffffffffff16815260200190815260200160002060030180549050612f2f9190615b03565b81548110612f66577f4e487b7100000000000000000000000000000000000000000000000000000000600052603260045260246000fd5b906000526020600020906004020160000160009054906101000a900461ffff1690508080612f9390615c3d565b915050600360008473ffffffffffffffffffffffffffffffffffffffff1673ffffffffffffffffffffffffffffffffffffffff16815260200190815260200160002060030160405180608001604052808361ffff1681526020018481526020013373ffffffffffffffffffffffffffffffffffffffff16815260200142815250908060018154018082558091505060019003906000526020600020906004020160009091909190915060008201518160000160006101000a81548161ffff021916908361ffff1602179055506020820151816001015560408201518160020160006101000a81548173ffffffffffffffffffffffffffffffffffffffff021916908373ffffffffffffffffffffffffffffffffffffffff1602179055506060820151816003015550507fc24e79725845725a4e07c0b148e2a1866b23297ea77702918ec83214b6cfbfa08333846040516130ef9392919061557a565b60405180910390a1505050565b6001600360003373ffffffffffffffffffffffffffffffffffffffff1673ffffffffffffffffffffffffffffffffffffffff16815260200190815260200160002060000160009054906101000a900460ff1660ff1614613191576040517f08c379a000000000000000000000000000000000000000000000000000000000815260040161318890615788565b60405180910390fd5b60018060003373ffffffffffffffffffffffffffffffffffffffff1673ffffffffffffffffffffffffffffffffffffffff16815260200190815260200160002060008373ffffffffffffffffffffffffffffffffffffffff1673ffffffffffffffffffffffffffffffffffffffff16815260200190815260200160002060000160009054906101000a900460ff1660ff1614613262576040517f08c379a000000000000000000000000000000000000000000000000000000000815260040161325990615808565b60405180910390fd5b8073ffffffffffffffffffffffffffffffffffffffff163373ffffffffffffffffffffffffffffffffffffffff1614156132d1576040517f08c379a00000000000000000000000000000000000000000000000000000000081526004016132c890615848565b60405180910390fd5b6000600160003373ffffffffffffffffffffffffffffffffffffffff1673ffffffffffffffffffffffffffffffffffffffff16815260200190815260200160002060008373ffffffffffffffffffffffffffffffffffffffff1673ffffffffffffffffffffffffffffffffffffffff16815260200190815260200160002060000160006101000a81548160ff021916908360ff1602179055506000600160003373ffffffffffffffffffffffffffffffffffffffff1673ffffffffffffffffffffffffffffffffffffffff16815260200190815260200160002060008373ffffffffffffffffffffffffffffffffffffffff1673ffffffffffffffffffffffffffffffffffffffff16815260200190815260200160002060000160016101000a81548160ff021916908360ff1602179055506000600160003373ffffffffffffffffffffffffffffffffffffffff1673ffffffffffffffffffffffffffffffffffffffff16815260200190815260200160002060008373ffffffffffffffffffffffffffffffffffffffff1673ffffffffffffffffffffffffffffffffffffffff16815260200190815260200160002060000160026101000a81548160ff021916908360ff1602179055507f825c8be24eb0df19500f63e86c29e7d0d951e73056b889b891d85e40938d9b6e33826040516134cd929190615551565b60405180910390a1613520600360003373ffffffffffffffffffffffffffffffffffffffff1673ffffffffffffffffffffffffffffffffffffffff16815260200190815260200160002060060182614601565b61356b600260008373ffffffffffffffffffffffffffffffffffffffff1673ffffffffffffffffffffffffffffffffffffffff16815260200190815260200160002060050133614601565b50565b60008060009054906101000a900473ffffffffffffffffffffffffffffffffffffffff16905090565b6060806060806001600260003373ffffffffffffffffffffffffffffffffffffffff1673ffffffffffffffffffffffffffffffffffffffff16815260200190815260200160002060000160009054906101000a900460ff1660ff1614613632576040517f08c379a000000000000000000000000000000000000000000000000000000000815260040161362990615768565b60405180910390fd5b60018060008773ffffffffffffffffffffffffffffffffffffffff1673ffffffffffffffffffffffffffffffffffffffff16815260200190815260200160002060003373ffffffffffffffffffffffffffffffffffffffff1673ffffffffffffffffffffffffffffffffffffffff16815260200190815260200160002060000160019054906101000a900460ff1660ff1614613703576040517f08c379a00000000000000000000000000000000000000000000000000000000081526004016136fa90615748565b60405180910390fd5b6000600360008773ffffffffffffffffffffffffffffffffffffffff1673ffffffffffffffffffffffffffffffffffffffff168152602001908152602001600020600301805490501161378b576040517f08c379a0000000000000000000000000000000000000000000000000000000008152600401613782906156a8565b60405180910390fd5b61379485611490565b93509350935093509193509193565b600060606000806137b385612477565b6137f2576040517f08c379a00000000000000000000000000000000000000000000000000000000081526004016137e990615888565b60405180910390fd5b6000600360008773ffffffffffffffffffffffffffffffffffffffff1673ffffffffffffffffffffffffffffffffffffffff1681526020019081526020016000206040518060e00160405290816000820160009054906101000a900460ff1660ff1660ff16815260200160018201805461386b90615c0b565b80601f016020809104026020016040519081016040528092919081815260200182805461389790615c0b565b80156138e45780601f106138b9576101008083540402835291602001916138e4565b820191906000526020600020905b8154815290600101906020018083116138c757829003601f168201915b505050505081526020016002820160009054906101000a900473ffffffffffffffffffffffffffffffffffffffff1673ffffffffffffffffffffffffffffffffffffffff1673ffffffffffffffffffffffffffffffffffffffff16815260200160038201805480602002602001604051908101604052809291908181526020016000905b82821015613a2457838290600052602060002090600402016040518060800160405290816000820160009054906101000a900461ffff1661ffff1661ffff168152602001600182015481526020016002820160009054906101000a900473ffffffffffffffffffffffffffffffffffffffff1673ffffffffffffffffffffffffffffffffffffffff1673ffffffffffffffffffffffffffffffffffffffff16815260200160038201548152505081526020019060010190613968565b5050505081526020016004820160009054906101000a900473ffffffffffffffffffffffffffffffffffffffff1673ffffffffffffffffffffffffffffffffffffffff1673ffffffffffffffffffffffffffffffffffffffff1681526020016005820154815260200160068201805480602002602001604051908101604052809291908181526020018280548015613b1157602002820191906000526020600020905b8160009054906101000a900473ffffffffffffffffffffffffffffffffffffffff1673ffffffffffffffffffffffffffffffffffffffff1681526020019060010190808311613ac7575b50505050508152505090508060000151816020015182604001518360a001519450945094509450509193509193565b60606005805480602002602001604051908101604052809291908181526020018280548015613bc457602002820191906000526020600020905b8160009054906101000a900473ffffffffffffffffffffffffffffffffffffffff1673ffffffffffffffffffffffffffffffffffffffff1681526020019060010190808311613b7a575b5050505050905090565b60606001600360003373ffffffffffffffffffffffffffffffffffffffff1673ffffffffffffffffffffffffffffffffffffffff16815260200190815260200160002060000160009054906101000a900460ff1660ff1614613c65576040517f08c379a0000000000000000000000000000000000000000000000000000000008152600401613c5c90615788565b60405180910390fd5b600360003373ffffffffffffffffffffffffffffffffffffffff1673ffffffffffffffffffffffffffffffffffffffff168152602001908152602001600020600601805480602002602001604051908101604052809291908181526020018280548015613d2757602002820191906000526020600020905b8160009054906101000a900473ffffffffffffffffffffffffffffffffffffffff1673ffffffffffffffffffffffffffffffffffffffff1681526020019060010190808311613cdd575b5050505050905090565b600660003373ffffffffffffffffffffffffffffffffffffffff1673ffffffffffffffffffffffffffffffffffffffff16815260200190815260200160002060009054906101000a900460ff1680613dbb57503373ffffffffffffffffffffffffffffffffffffffff16613da361356e565b73ffffffffffffffffffffffffffffffffffffffff16145b613dfa576040517f08c379a0000000000000000000000000000000000000000000000000000000008152600401613df1906157c8565b60405180910390fd5b6000600360008473ffffffffffffffffffffffffffffffffffffffff1673ffffffffffffffffffffffffffffffffffffffff16815260200190815260200160002060000160009054906101000a900460ff1660ff1614613e8f576040517f08c379a0000000000000000000000000000000000000000000000000000000008152600401613e86906158c8565b60405180910390fd5b6001600360008473ffffffffffffffffffffffffffffffffffffffff1673ffffffffffffffffffffffffffffffffffffffff16815260200190815260200160002060000160006101000a81548160ff021916908360ff16021790555080600360008473ffffffffffffffffffffffffffffffffffffffff1673ffffffffffffffffffffffffffffffffffffffff1681526020019081526020016000206001019080519060200190613f41929190614a49565b5081600360008473ffffffffffffffffffffffffffffffffffffffff1673ffffffffffffffffffffffffffffffffffffffff16815260200190815260200160002060020160006101000a81548173ffffffffffffffffffffffffffffffffffffffff021916908373ffffffffffffffffffffffffffffffffffffffff16021790555033600360008473ffffffffffffffffffffffffffffffffffffffff1673ffffffffffffffffffffffffffffffffffffffff16815260200190815260200160002060040160006101000a81548173ffffffffffffffffffffffffffffffffffffffff021916908373ffffffffffffffffffffffffffffffffffffffff16021790555042600360008473ffffffffffffffffffffffffffffffffffffffff1673ffffffffffffffffffffffffffffffffffffffff16815260200190815260200160002060050181905550600067ffffffffffffffff8111156140cc577f4e487b7100000000000000000000000000000000000000000000000000000000600052604160045260246000fd5b6040519080825280602002602001820160405280156140fa5781602001602082028036833780820191505090505b50600360008473ffffffffffffffffffffffffffffffffffffffff1673ffffffffffffffffffffffffffffffffffffffff1681526020019081526020016000206006019080519060200190614150929190614acf565b507fa7463f222f1e2777454362bb6e940c83173a1ff42e331e703b3a1fa9b56038e53383604051614182929190615551565b60405180910390a1600760003373ffffffffffffffffffffffffffffffffffffffff1673ffffffffffffffffffffffffffffffffffffffff168152602001908152602001600020600001829080600181540180825580915050600190039060005260206000200160009091909190916101000a81548173ffffffffffffffffffffffffffffffffffffffff021916908373ffffffffffffffffffffffffffffffffffffffff1602179055506004829080600181540180825580915050600190039060005260206000200160009091909190916101000a81548173ffffffffffffffffffffffffffffffffffffffff021916908373ffffffffffffffffffffffffffffffffffffffff1602179055505050565b600080600080600360008773ffffffffffffffffffffffffffffffffffffffff1673ffffffffffffffffffffffffffffffffffffffff1681526020019081526020016000206003018581548110614314577f4e487b7100000000000000000000000000000000000000000000000000000000600052603260045260246000fd5b906000526020600020906004020160000160009054906101000a900461ffff16600360008873ffffffffffffffffffffffffffffffffffffffff1673ffffffffffffffffffffffffffffffffffffffff16815260200190815260200160002060030186815481106143ae577f4e487b7100000000000000000000000000000000000000000000000000000000600052603260045260246000fd5b906000526020600020906004020160010154600360008973ffffffffffffffffffffffffffffffffffffffff1673ffffffffffffffffffffffffffffffffffffffff168152602001908152602001600020600301878154811061443a577f4e487b7100000000000000000000000000000000000000000000000000000000600052603260045260246000fd5b906000526020600020906004020160020160009054906101000a900473ffffffffffffffffffffffffffffffffffffffff16600360008a73ffffffffffffffffffffffffffffffffffffffff1673ffffffffffffffffffffffffffffffffffffffff16815260200190815260200160002060030188815481106144e6577f4e487b7100000000000000000000000000000000000000000000000000000000600052603260045260246000fd5b906000526020600020906004020160030154935093509350935092959194509250565b6145116148f8565b73ffffffffffffffffffffffffffffffffffffffff1661452f61356e565b73ffffffffffffffffffffffffffffffffffffffff1614614585576040517f08c379a000000000000000000000000000000000000000000000000000000000815260040161457c906157a8565b60405180910390fd5b600073ffffffffffffffffffffffffffffffffffffffff168173ffffffffffffffffffffffffffffffffffffffff1614156145f5576040517f08c379a00000000000000000000000000000000000000000000000000000000081526004016145ec906156e8565b60405180910390fd5b6145fe81614900565b50565b60008060005b84805490508161ffff1610156146cd578373ffffffffffffffffffffffffffffffffffffffff16858261ffff168154811061466b577f4e487b7100000000000000000000000000000000000000000000000000000000600052603260045260246000fd5b9060005260206000200160009054906101000a900473ffffffffffffffffffffffffffffffffffffffff1673ffffffffffffffffffffffffffffffffffffffff1614156146ba57809250600191505b80806146c590615c3d565b915050614607565b508061470e576040517f08c379a0000000000000000000000000000000000000000000000000000000008152600401614705906158a8565b60405180910390fd5b60018480549050141561478c5783805480614752577f4e487b7100000000000000000000000000000000000000000000000000000000600052603160045260246000fd5b6001900381819060005260206000200160006101000a81549073ffffffffffffffffffffffffffffffffffffffff021916905590556148f2565b836001858054905061479e9190615b03565b815481106147d5577f4e487b7100000000000000000000000000000000000000000000000000000000600052603260045260246000fd5b9060005260206000200160009054906101000a900473ffffffffffffffffffffffffffffffffffffffff16848361ffff168154811061483d577f4e487b7100000000000000000000000000000000000000000000000000000000600052603260045260246000fd5b9060005260206000200160006101000a81548173ffffffffffffffffffffffffffffffffffffffff021916908373ffffffffffffffffffffffffffffffffffffffff160217905550838054806148bc577f4e487b7100000000000000000000000000000000000000000000000000000000600052603160045260246000fd5b6001900381819060005260206000200160006101000a81549073ffffffffffffffffffffffffffffffffffffffff021916905590555b50505050565b600033905090565b60008060009054906101000a900473ffffffffffffffffffffffffffffffffffffffff169050816000806101000a81548173ffffffffffffffffffffffffffffffffffffffff021916908373ffffffffffffffffffffffffffffffffffffffff1602179055508173ffffffffffffffffffffffffffffffffffffffff168173ffffffffffffffffffffffffffffffffffffffff167f8be0079c531659141344cd1fd0a4f28419497f9722a3daafe3b4186f6b6457e060405160405180910390a35050565b5080546149d090615c0b565b6000825580601f106149e25750614a01565b601f016020900490600052602060002090810190614a009190614b59565b5b50565b5080546000825590600052602060002090810190614a229190614b59565b50565b5080546000825560040290600052602060002090810190614a469190614b76565b50565b828054614a5590615c0b565b90600052602060002090601f016020900481019282614a775760008555614abe565b82601f10614a9057805160ff1916838001178555614abe565b82800160010185558215614abe579182015b82811115614abd578251825591602001919060010190614aa2565b5b509050614acb9190614b59565b5090565b828054828255906000526020600020908101928215614b48579160200282015b82811115614b475782518260006101000a81548173ffffffffffffffffffffffffffffffffffffffff021916908373ffffffffffffffffffffffffffffffffffffffff16021790555091602001919060010190614aef565b5b509050614b559190614b59565b5090565b5b80821115614b72576000816000905550600101614b5a565b5090565b5b80821115614bd557600080820160006101000a81549061ffff021916905560018201600090556002820160006101000a81549073ffffffffffffffffffffffffffffffffffffffff0219169055600382016000905550600401614b77565b5090565b6000614bec614be7846159d3565b6159a2565b905082815260208101848484011115614c0457600080fd5b614c0f848285615bc9565b509392505050565b600081359050614c2681615d92565b92915050565b600081359050614c3b81615da9565b92915050565b600082601f830112614c5257600080fd5b8135614c62848260208601614bd9565b91505092915050565b600081359050614c7a81615dc0565b92915050565b600060208284031215614c9257600080fd5b6000614ca084828501614c17565b91505092915050565b60008060408385031215614cbc57600080fd5b6000614cca85828601614c17565b9250506020614cdb85828601614c17565b9150509250929050565b60008060408385031215614cf857600080fd5b6000614d0685828601614c17565b9250506020614d1785828601614c2c565b9150509250929050565b60008060408385031215614d3457600080fd5b6000614d4285828601614c17565b925050602083013567ffffffffffffffff811115614d5f57600080fd5b614d6b85828601614c41565b9150509250929050565b60008060408385031215614d8857600080fd5b6000614d9685828601614c17565b9250506020614da785828601614c6b565b9150509250929050565b600060208284031215614dc357600080fd5b6000614dd184828501614c2c565b91505092915050565b6000614de68383614e3a565b60208301905092915050565b6000614dfe8383614fdf565b60208301905092915050565b6000614e1683836154eb565b60208301905092915050565b6000614e2e8383615509565b60208301905092915050565b614e4381615b37565b82525050565b614e5281615b37565b82525050565b6000614e6382615a43565b614e6d8185615aae565b9350614e7883615a03565b8060005b83811015614ea9578151614e908882614dda565b9750614e9b83615a7a565b925050600181019050614e7c565b5085935050505092915050565b6000614ec182615a4e565b614ecb8185615abf565b9350614ed683615a13565b8060005b83811015614f07578151614eee8882614df2565b9750614ef983615a87565b925050600181019050614eda565b5085935050505092915050565b6000614f1f82615a59565b614f298185615ad0565b9350614f3483615a23565b8060005b83811015614f65578151614f4c8882614e0a565b9750614f5783615a94565b925050600181019050614f38565b5085935050505092915050565b6000614f7d82615a64565b614f878185615ae1565b9350614f9283615a33565b8060005b83811015614fc3578151614faa8882614e22565b9750614fb583615aa1565b925050600181019050614f96565b5085935050505092915050565b614fd981615b49565b82525050565b614fe881615b55565b82525050565b614ff781615b55565b82525050565b61500681615bb7565b82525050565b600061501782615a6f565b6150218185615af2565b9350615031818560208601615bd8565b61503a81615d6d565b840191505092915050565b6000615052601983615af2565b91507f50617469656e7420686173206e6f20454852207265636f7264000000000000006000830152602082019050919050565b6000615092601d83615af2565b91507f416c726561647920417574686f72697a65642062792050617469656e740000006000830152602082019050919050565b60006150d2602683615af2565b91507f4f776e61626c653a206e6577206f776e657220697320746865207a65726f206160008301527f64647265737300000000000000000000000000000000000000000000000000006020830152604082019050919050565b6000615138601283615af2565b91507f416c726561647920417574686f72697a656400000000000000000000000000006000830152602082019050919050565b6000615178601283615af2565b91507f43616e27742061646420796f757273656c6600000000000000000000000000006000830152602082019050919050565b60006151b8601b83615af2565b91507f446f63746f7220686173206e6f207570646174652072696768747300000000006000830152602082019050919050565b60006151f8601783615af2565b91507f5265676973746572656420446f63746f7273206f6e6c790000000000000000006000830152602082019050919050565b6000615238601583615af2565b91507f50617469656e7420646f65736e277420657869737400000000000000000000006000830152602082019050919050565b6000615278602083615af2565b91507f4f776e61626c653a2063616c6c6572206973206e6f7420746865206f776e65726000830152602082019050919050565b60006152b8601383615af2565b91507f4e6f722061646d696e206e6f72206f776e6572000000000000000000000000006000830152602082019050919050565b60006152f8601483615af2565b91507f61646d696e20616c7265616479206578697374730000000000000000000000006000830152602082019050919050565b6000615338601683615af2565b91507f416c7265616479204e6f7420417574686f72697a6564000000000000000000006000830152602082019050919050565b6000615378601283615af2565b91507f7573657220646f65736e277420657869737400000000000000000000000000006000830152602082019050919050565b60006153b8601583615af2565b91507f43616e27742072656d6f766520796f757273656c6600000000000000000000006000830152602082019050919050565b60006153f8600d83615af2565b91507f646f63746f7220657869737473000000000000000000000000000000000000006000830152602082019050919050565b6000615438601683615af2565b91507f50617469656e7420646f6573206e6f74206578697374000000000000000000006000830152602082019050919050565b6000615478600e83615af2565b91507f4e6f206974656d7320666f756e640000000000000000000000000000000000006000830152602082019050919050565b60006154b8600e83615af2565b91507f70617469656e74206578697374730000000000000000000000000000000000006000830152602082019050919050565b6154f481615b72565b82525050565b61550381615b72565b82525050565b61551281615ba0565b82525050565b61552181615ba0565b82525050565b61553081615baa565b82525050565b600060208201905061554b6000830184614e49565b92915050565b60006040820190506155666000830185614e49565b6155736020830184614e49565b9392505050565b600060608201905061558f6000830186614e49565b61559c6020830185614e49565b6155a96040830184614fee565b949350505050565b60006060820190506155c66000830186614e49565b81810360208301526155d8818561500c565b90506155e76040830184615518565b949350505050565b600060208201905081810360008301526156098184614e58565b905092915050565b6000608082019050818103600083015261562b8187614f14565b9050818103602083015261563f8186614eb6565b905081810360408301526156538185614e58565b905081810360608301526156678184614f72565b905095945050505050565b60006020820190506156876000830184614fd0565b92915050565b60006020820190506156a26000830184614ffd565b92915050565b600060208201905081810360008301526156c181615045565b9050919050565b600060208201905081810360008301526156e181615085565b9050919050565b60006020820190508181036000830152615701816150c5565b9050919050565b600060208201905081810360008301526157218161512b565b9050919050565b600060208201905081810360008301526157418161516b565b9050919050565b60006020820190508181036000830152615761816151ab565b9050919050565b60006020820190508181036000830152615781816151eb565b9050919050565b600060208201905081810360008301526157a18161522b565b9050919050565b600060208201905081810360008301526157c18161526b565b9050919050565b600060208201905081810360008301526157e1816152ab565b9050919050565b60006020820190508181036000830152615801816152eb565b9050919050565b600060208201905081810360008301526158218161532b565b9050919050565b600060208201905081810360008301526158418161536b565b9050919050565b60006020820190508181036000830152615861816153ab565b9050919050565b60006020820190508181036000830152615881816153eb565b9050919050565b600060208201905081810360008301526158a18161542b565b9050919050565b600060208201905081810360008301526158c18161546b565b9050919050565b600060208201905081810360008301526158e1816154ab565b9050919050565b60006080820190506158fd60008301876154fa565b61590a6020830186614fee565b6159176040830185614e49565b6159246060830184615518565b95945050505050565b60006080820190506159426000830187615527565b8181036020830152615954818661500c565b90506159636040830185614e49565b6159706060830184615518565b95945050505050565b600060408201905061598e6000830185615527565b61599b6020830184615527565b9392505050565b6000604051905081810181811067ffffffffffffffff821117156159c9576159c8615d3e565b5b8060405250919050565b600067ffffffffffffffff8211156159ee576159ed615d3e565b5b601f19601f8301169050602081019050919050565b6000819050602082019050919050565b6000819050602082019050919050565b6000819050602082019050919050565b6000819050602082019050919050565b600081519050919050565b600081519050919050565b600081519050919050565b600081519050919050565b600081519050919050565b6000602082019050919050565b6000602082019050919050565b6000602082019050919050565b6000602082019050919050565b600082825260208201905092915050565b600082825260208201905092915050565b600082825260208201905092915050565b600082825260208201905092915050565b600082825260208201905092915050565b6000615b0e82615ba0565b9150615b1983615ba0565b925082821015615b2c57615b2b615cb1565b5b828203905092915050565b6000615b4282615b80565b9050919050565b60008115159050919050565b6000819050919050565b6000819050615b6d82615d7e565b919050565b600061ffff82169050919050565b600073ffffffffffffffffffffffffffffffffffffffff82169050919050565b6000819050919050565b600060ff82169050919050565b6000615bc282615b5f565b9050919050565b82818337600083830152505050565b60005b83811015615bf6578082015181840152602081019050615bdb565b83811115615c05576000848401525b50505050565b60006002820490506001821680615c2357607f821691505b60208210811415615c3757615c36615d0f565b5b50919050565b6000615c4882615b72565b915061ffff821415615c5d57615c5c615cb1565b5b600182019050919050565b6000615c7382615ba0565b91507fffffffffffffffffffffffffffffffffffffffffffffffffffffffffffffffff821415615ca657615ca5615cb1565b5b600182019050919050565b7f4e487b7100000000000000000000000000000000000000000000000000000000600052601160045260246000fd5b7f4e487b7100000000000000000000000000000000000000000000000000000000600052602160045260246000fd5b7f4e487b7100000000000000000000000000000000000000000000000000000000600052602260045260246000fd5b7f4e487b7100000000000000000000000000000000000000000000000000000000600052604160045260246000fd5b6000601f19601f8301169050919050565b60058110615d8f57615d8e615ce0565b5b50565b615d9b81615b37565b8114615da657600080fd5b50565b615db281615b55565b8114615dbd57600080fd5b50565b615dc981615ba0565b8114615dd457600080fd5b5056fea26469706673582212205c761183139dbb808e2692e323478f3dd9e981a4536914e6b78ad948b14da4ad64736f6c63430008000033",
  "linkReferences": {},
  "deployedLinkReferences": {}
}